{
  "contractName": "FungibleToken",
  "abi": [
    {
      "inputs": [
        {
          "internalType": "string",
          "name": "name",
          "type": "string"
        },
        {
          "internalType": "string",
          "name": "symbol",
          "type": "string"
        }
      ],
      "stateMutability": "nonpayable",
      "type": "constructor"
    },
    {
      "anonymous": false,
      "inputs": [
        {
          "indexed": true,
          "internalType": "address",
          "name": "owner",
          "type": "address"
        },
        {
          "indexed": true,
          "internalType": "address",
          "name": "spender",
          "type": "address"
        },
        {
          "indexed": false,
          "internalType": "uint256",
          "name": "value",
          "type": "uint256"
        }
      ],
      "name": "Approval",
      "type": "event"
    },
    {
      "anonymous": false,
      "inputs": [
        {
          "indexed": true,
          "internalType": "address",
          "name": "previousOwner",
          "type": "address"
        },
        {
          "indexed": true,
          "internalType": "address",
          "name": "newOwner",
          "type": "address"
        }
      ],
      "name": "OwnershipTransferred",
      "type": "event"
    },
    {
      "anonymous": false,
      "inputs": [
        {
          "indexed": true,
          "internalType": "address",
          "name": "from",
          "type": "address"
        },
        {
          "indexed": true,
          "internalType": "address",
          "name": "to",
          "type": "address"
        },
        {
          "indexed": false,
          "internalType": "uint256",
          "name": "value",
          "type": "uint256"
        }
      ],
      "name": "Transfer",
      "type": "event"
    },
    {
      "inputs": [
        {
          "internalType": "address",
          "name": "owner",
          "type": "address"
        },
        {
          "internalType": "address",
          "name": "spender",
          "type": "address"
        }
      ],
      "name": "allowance",
      "outputs": [
        {
          "internalType": "uint256",
          "name": "",
          "type": "uint256"
        }
      ],
      "stateMutability": "view",
      "type": "function",
      "constant": true
    },
    {
      "inputs": [
        {
          "internalType": "address",
          "name": "spender",
          "type": "address"
        },
        {
          "internalType": "uint256",
          "name": "amount",
          "type": "uint256"
        }
      ],
      "name": "approve",
      "outputs": [
        {
          "internalType": "bool",
          "name": "",
          "type": "bool"
        }
      ],
      "stateMutability": "nonpayable",
      "type": "function"
    },
    {
      "inputs": [
        {
          "internalType": "address",
          "name": "account",
          "type": "address"
        }
      ],
      "name": "balanceOf",
      "outputs": [
        {
          "internalType": "uint256",
          "name": "",
          "type": "uint256"
        }
      ],
      "stateMutability": "view",
      "type": "function",
      "constant": true
    },
    {
      "inputs": [],
      "name": "decimals",
      "outputs": [
        {
          "internalType": "uint8",
          "name": "",
          "type": "uint8"
        }
      ],
      "stateMutability": "view",
      "type": "function",
      "constant": true
    },
    {
      "inputs": [
        {
          "internalType": "address",
          "name": "spender",
          "type": "address"
        },
        {
          "internalType": "uint256",
          "name": "subtractedValue",
          "type": "uint256"
        }
      ],
      "name": "decreaseAllowance",
      "outputs": [
        {
          "internalType": "bool",
          "name": "",
          "type": "bool"
        }
      ],
      "stateMutability": "nonpayable",
      "type": "function"
    },
    {
      "inputs": [
        {
          "internalType": "address",
          "name": "spender",
          "type": "address"
        },
        {
          "internalType": "uint256",
          "name": "addedValue",
          "type": "uint256"
        }
      ],
      "name": "increaseAllowance",
      "outputs": [
        {
          "internalType": "bool",
          "name": "",
          "type": "bool"
        }
      ],
      "stateMutability": "nonpayable",
      "type": "function"
    },
    {
      "inputs": [
        {
          "internalType": "address",
          "name": "",
          "type": "address"
        }
      ],
      "name": "isAuthorizedMinter",
      "outputs": [
        {
          "internalType": "bool",
          "name": "",
          "type": "bool"
        }
      ],
      "stateMutability": "view",
      "type": "function",
      "constant": true
    },
    {
      "inputs": [],
      "name": "loyaltyProgram",
      "outputs": [
        {
          "internalType": "address",
          "name": "",
          "type": "address"
        }
      ],
      "stateMutability": "view",
      "type": "function",
      "constant": true
    },
    {
      "inputs": [],
      "name": "name",
      "outputs": [
        {
          "internalType": "string",
          "name": "",
          "type": "string"
        }
      ],
      "stateMutability": "view",
      "type": "function",
      "constant": true
    },
    {
      "inputs": [],
      "name": "owner",
      "outputs": [
        {
          "internalType": "address",
          "name": "",
          "type": "address"
        }
      ],
      "stateMutability": "view",
      "type": "function",
      "constant": true
    },
    {
      "inputs": [],
      "name": "renounceOwnership",
      "outputs": [],
      "stateMutability": "nonpayable",
      "type": "function"
    },
    {
      "inputs": [],
      "name": "symbol",
      "outputs": [
        {
          "internalType": "string",
          "name": "",
          "type": "string"
        }
      ],
      "stateMutability": "view",
      "type": "function",
      "constant": true
    },
    {
      "inputs": [],
      "name": "totalSupply",
      "outputs": [
        {
          "internalType": "uint256",
          "name": "",
          "type": "uint256"
        }
      ],
      "stateMutability": "view",
      "type": "function",
      "constant": true
    },
    {
      "inputs": [
        {
          "internalType": "address",
          "name": "to",
          "type": "address"
        },
        {
          "internalType": "uint256",
          "name": "amount",
          "type": "uint256"
        }
      ],
      "name": "transfer",
      "outputs": [
        {
          "internalType": "bool",
          "name": "",
          "type": "bool"
        }
      ],
      "stateMutability": "nonpayable",
      "type": "function"
    },
    {
      "inputs": [
        {
          "internalType": "address",
          "name": "from",
          "type": "address"
        },
        {
          "internalType": "address",
          "name": "to",
          "type": "address"
        },
        {
          "internalType": "uint256",
          "name": "amount",
          "type": "uint256"
        }
      ],
      "name": "transferFrom",
      "outputs": [
        {
          "internalType": "bool",
          "name": "",
          "type": "bool"
        }
      ],
      "stateMutability": "nonpayable",
      "type": "function"
    },
    {
      "inputs": [
        {
          "internalType": "address",
          "name": "newOwner",
          "type": "address"
        }
      ],
      "name": "transferOwnership",
      "outputs": [],
      "stateMutability": "nonpayable",
      "type": "function"
    },
    {
      "inputs": [
        {
          "internalType": "address",
          "name": "_loyaltyProgram",
          "type": "address"
        }
      ],
      "name": "authorizeLoyaltyProgram",
      "outputs": [],
      "stateMutability": "nonpayable",
      "type": "function"
    },
    {
      "inputs": [
        {
          "internalType": "address",
          "name": "minter",
          "type": "address"
        },
        {
          "internalType": "bool",
          "name": "status",
          "type": "bool"
        }
      ],
      "name": "setAuthorizedMinter",
      "outputs": [],
      "stateMutability": "nonpayable",
      "type": "function"
    },
    {
      "inputs": [
        {
          "internalType": "address",
          "name": "to",
          "type": "address"
        },
        {
          "internalType": "uint256",
          "name": "amount",
          "type": "uint256"
        }
      ],
      "name": "mint",
      "outputs": [
        {
          "internalType": "bool",
          "name": "",
          "type": "bool"
        }
      ],
      "stateMutability": "nonpayable",
      "type": "function"
    }
  ],
  "bytecode": "0x60806040523480156200001157600080fd5b5060405162001f9438038062001f948339818101604052810190620000379190620002dd565b8181816003908051906020019062000051929190620001bb565b5080600490805190602001906200006a929190620001bb565b5050506200008d62000081620000ed60201b60201c565b620000f560201b60201c565b6001600660003373ffffffffffffffffffffffffffffffffffffffff1673ffffffffffffffffffffffffffffffffffffffff16815260200190815260200160002060006101000a81548160ff021916908315150217905550505062000481565b600033905090565b6000600560009054906101000a900473ffffffffffffffffffffffffffffffffffffffff16905081600560006101000a81548173ffffffffffffffffffffffffffffffffffffffff021916908373ffffffffffffffffffffffffffffffffffffffff1602179055508173ffffffffffffffffffffffffffffffffffffffff168173ffffffffffffffffffffffffffffffffffffffff167f8be0079c531659141344cd1fd0a4f28419497f9722a3daafe3b4186f6b6457e060405160405180910390a35050565b828054620001c990620003ed565b90600052602060002090601f016020900481019282620001ed576000855562000239565b82601f106200020857805160ff191683800117855562000239565b8280016001018555821562000239579182015b82811115620002385782518255916020019190600101906200021b565b5b5090506200024891906200024c565b5090565b5b80821115620002675760008160009055506001016200024d565b5090565b6000620002826200027c8462000384565b62000350565b9050828152602081018484840111156200029b57600080fd5b620002a8848285620003b7565b509392505050565b600082601f830112620002c257600080fd5b8151620002d48482602086016200026b565b91505092915050565b60008060408385031215620002f157600080fd5b600083015167ffffffffffffffff8111156200030c57600080fd5b6200031a85828601620002b0565b925050602083015167ffffffffffffffff8111156200033857600080fd5b6200034685828601620002b0565b9150509250929050565b6000604051905081810181811067ffffffffffffffff821117156200037a576200037962000452565b5b8060405250919050565b600067ffffffffffffffff821115620003a257620003a162000452565b5b601f19601f8301169050602081019050919050565b60005b83811015620003d7578082015181840152602081019050620003ba565b83811115620003e7576000848401525b50505050565b600060028204905060018216806200040657607f821691505b602082108114156200041d576200041c62000423565b5b50919050565b7f4e487b7100000000000000000000000000000000000000000000000000000000600052602260045260246000fd5b7f4e487b7100000000000000000000000000000000000000000000000000000000600052604160045260246000fd5b611b0380620004916000396000f3fe608060405234801561001057600080fd5b50600436106101215760003560e01c8063715018a6116100ad578063a9059cbb11610071578063a9059cbb14610334578063b5deb47e14610364578063dd62ed3e14610380578063ed58bad8146103b0578063f2fde38b146103cc57610121565b8063715018a61461028e578063842392c2146102985780638da5cb5b146102c857806395d89b41146102e6578063a457c2d71461030457610121565b8063313ce567116100f4578063313ce567146101c257806339509351146101e057806340c10f1914610210578063645d49b01461024057806370a082311461025e57610121565b806306fdde0314610126578063095ea7b31461014457806318160ddd1461017457806323b872dd14610192575b600080fd5b61012e6103e8565b60405161013b9190611735565b60405180910390f35b61015e60048036038101906101599190611284565b61047a565b60405161016b919061171a565b60405180910390f35b61017c61049d565b60405161018991906118b7565b60405180910390f35b6101ac60048036038101906101a791906111f9565b6104a7565b6040516101b9919061171a565b60405180910390f35b6101ca6104d6565b6040516101d791906118d2565b60405180910390f35b6101fa60048036038101906101f59190611284565b6104df565b604051610207919061171a565b60405180910390f35b61022a60048036038101906102259190611284565b610516565b604051610237919061171a565b60405180910390f35b610248610610565b60405161025591906116ff565b60405180910390f35b61027860048036038101906102739190611194565b610636565b60405161028591906118b7565b60405180910390f35b61029661067e565b005b6102b260048036038101906102ad9190611194565b610692565b6040516102bf919061171a565b60405180910390f35b6102d06106b2565b6040516102dd91906116ff565b60405180910390f35b6102ee6106dc565b6040516102fb9190611735565b60405180910390f35b61031e60048036038101906103199190611284565b61076e565b60405161032b919061171a565b60405180910390f35b61034e60048036038101906103499190611284565b6107e5565b60405161035b919061171a565b60405180910390f35b61037e60048036038101906103799190611194565b610808565b005b61039a600480360381019061039591906111bd565b61086b565b6040516103a791906118b7565b60405180910390f35b6103ca60048036038101906103c59190611248565b6108f2565b005b6103e660048036038101906103e19190611194565b610955565b005b6060600380546103f7906119e7565b80601f0160208091040260200160405190810160405280929190818152602001828054610423906119e7565b80156104705780601f1061044557610100808354040283529160200191610470565b820191906000526020600020905b81548152906001019060200180831161045357829003601f168201915b5050505050905090565b6000806104856109d9565b90506104928185856109e1565b600191505092915050565b6000600254905090565b6000806104b26109d9565b90506104bf858285610bac565b6104ca858585610c38565b60019150509392505050565b60006012905090565b6000806104ea6109d9565b905061050b8185856104fc858961086b565b6105069190611909565b6109e1565b600191505092915050565b6000600660003373ffffffffffffffffffffffffffffffffffffffff1673ffffffffffffffffffffffffffffffffffffffff16815260200190815260200160002060009054906101000a900460ff16806105bd5750600760009054906101000a900473ffffffffffffffffffffffffffffffffffffffff1673ffffffffffffffffffffffffffffffffffffffff163373ffffffffffffffffffffffffffffffffffffffff16145b6105fc576040517f08c379a00000000000000000000000000000000000000000000000000000000081526004016105f3906117f7565b60405180910390fd5b6106068383610eb0565b6001905092915050565b600760009054906101000a900473ffffffffffffffffffffffffffffffffffffffff1681565b60008060008373ffffffffffffffffffffffffffffffffffffffff1673ffffffffffffffffffffffffffffffffffffffff168152602001908152602001600020549050919050565b610686611007565b6106906000611085565b565b60066020528060005260406000206000915054906101000a900460ff1681565b6000600560009054906101000a900473ffffffffffffffffffffffffffffffffffffffff16905090565b6060600480546106eb906119e7565b80601f0160208091040260200160405190810160405280929190818152602001828054610717906119e7565b80156107645780601f1061073957610100808354040283529160200191610764565b820191906000526020600020905b81548152906001019060200180831161074757829003601f168201915b5050505050905090565b6000806107796109d9565b90506000610787828661086b565b9050838110156107cc576040517f08c379a00000000000000000000000000000000000000000000000000000000081526004016107c390611877565b60405180910390fd5b6107d982868684036109e1565b60019250505092915050565b6000806107f06109d9565b90506107fd818585610c38565b600191505092915050565b610810611007565b6001600660008373ffffffffffffffffffffffffffffffffffffffff1673ffffffffffffffffffffffffffffffffffffffff16815260200190815260200160002060006101000a81548160ff02191690831515021790555050565b6000600160008473ffffffffffffffffffffffffffffffffffffffff1673ffffffffffffffffffffffffffffffffffffffff16815260200190815260200160002060008373ffffffffffffffffffffffffffffffffffffffff1673ffffffffffffffffffffffffffffffffffffffff16815260200190815260200160002054905092915050565b6108fa611007565b80600660008473ffffffffffffffffffffffffffffffffffffffff1673ffffffffffffffffffffffffffffffffffffffff16815260200190815260200160002060006101000a81548160ff0219169083151502179055505050565b61095d611007565b600073ffffffffffffffffffffffffffffffffffffffff168173ffffffffffffffffffffffffffffffffffffffff1614156109cd576040517f08c379a00000000000000000000000000000000000000000000000000000000081526004016109c490611777565b60405180910390fd5b6109d681611085565b50565b600033905090565b600073ffffffffffffffffffffffffffffffffffffffff168373ffffffffffffffffffffffffffffffffffffffff161415610a51576040517f08c379a0000000000000000000000000000000000000000000000000000000008152600401610a4890611857565b60405180910390fd5b600073ffffffffffffffffffffffffffffffffffffffff168273ffffffffffffffffffffffffffffffffffffffff161415610ac1576040517f08c379a0000000000000000000000000000000000000000000000000000000008152600401610ab890611797565b60405180910390fd5b80600160008573ffffffffffffffffffffffffffffffffffffffff1673ffffffffffffffffffffffffffffffffffffffff16815260200190815260200160002060008473ffffffffffffffffffffffffffffffffffffffff1673ffffffffffffffffffffffffffffffffffffffff168152602001908152602001600020819055508173ffffffffffffffffffffffffffffffffffffffff168373ffffffffffffffffffffffffffffffffffffffff167f8c5be1e5ebec7d5bd14f71427d1e84f3dd0314c0f7b2291e5b200ac8c7c3b92583604051610b9f91906118b7565b60405180910390a3505050565b6000610bb8848461086b565b90507fffffffffffffffffffffffffffffffffffffffffffffffffffffffffffffffff8114610c325781811015610c24576040517f08c379a0000000000000000000000000000000000000000000000000000000008152600401610c1b906117b7565b60405180910390fd5b610c3184848484036109e1565b5b50505050565b600073ffffffffffffffffffffffffffffffffffffffff168373ffffffffffffffffffffffffffffffffffffffff161415610ca8576040517f08c379a0000000000000000000000000000000000000000000000000000000008152600401610c9f90611837565b60405180910390fd5b600073ffffffffffffffffffffffffffffffffffffffff168273ffffffffffffffffffffffffffffffffffffffff161415610d18576040517f08c379a0000000000000000000000000000000000000000000000000000000008152600401610d0f90611757565b60405180910390fd5b610d2383838361114b565b60008060008573ffffffffffffffffffffffffffffffffffffffff1673ffffffffffffffffffffffffffffffffffffffff16815260200190815260200160002054905081811015610da9576040517f08c379a0000000000000000000000000000000000000000000000000000000008152600401610da0906117d7565b60405180910390fd5b8181036000808673ffffffffffffffffffffffffffffffffffffffff1673ffffffffffffffffffffffffffffffffffffffff16815260200190815260200160002081905550816000808573ffffffffffffffffffffffffffffffffffffffff1673ffffffffffffffffffffffffffffffffffffffff168152602001908152602001600020600082825401925050819055508273ffffffffffffffffffffffffffffffffffffffff168473ffffffffffffffffffffffffffffffffffffffff167fddf252ad1be2c89b69c2b068fc378daa952ba7f163c4a11628f55a4df523b3ef84604051610e9791906118b7565b60405180910390a3610eaa848484611150565b50505050565b600073ffffffffffffffffffffffffffffffffffffffff168273ffffffffffffffffffffffffffffffffffffffff161415610f20576040517f08c379a0000000000000000000000000000000000000000000000000000000008152600401610f1790611897565b60405180910390fd5b610f2c6000838361114b565b8060026000828254610f3e9190611909565b92505081905550806000808473ffffffffffffffffffffffffffffffffffffffff1673ffffffffffffffffffffffffffffffffffffffff168152602001908152602001600020600082825401925050819055508173ffffffffffffffffffffffffffffffffffffffff16600073ffffffffffffffffffffffffffffffffffffffff167fddf252ad1be2c89b69c2b068fc378daa952ba7f163c4a11628f55a4df523b3ef83604051610fef91906118b7565b60405180910390a361100360008383611150565b5050565b61100f6109d9565b73ffffffffffffffffffffffffffffffffffffffff1661102d6106b2565b73ffffffffffffffffffffffffffffffffffffffff1614611083576040517f08c379a000000000000000000000000000000000000000000000000000000000815260040161107a90611817565b60405180910390fd5b565b6000600560009054906101000a900473ffffffffffffffffffffffffffffffffffffffff16905081600560006101000a81548173ffffffffffffffffffffffffffffffffffffffff021916908373ffffffffffffffffffffffffffffffffffffffff1602179055508173ffffffffffffffffffffffffffffffffffffffff168173ffffffffffffffffffffffffffffffffffffffff167f8be0079c531659141344cd1fd0a4f28419497f9722a3daafe3b4186f6b6457e060405160405180910390a35050565b505050565b505050565b60008135905061116481611a88565b92915050565b60008135905061117981611a9f565b92915050565b60008135905061118e81611ab6565b92915050565b6000602082840312156111a657600080fd5b60006111b484828501611155565b91505092915050565b600080604083850312156111d057600080fd5b60006111de85828601611155565b92505060206111ef85828601611155565b9150509250929050565b60008060006060848603121561120e57600080fd5b600061121c86828701611155565b935050602061122d86828701611155565b925050604061123e8682870161117f565b9150509250925092565b6000806040838503121561125b57600080fd5b600061126985828601611155565b925050602061127a8582860161116a565b9150509250929050565b6000806040838503121561129757600080fd5b60006112a585828601611155565b92505060206112b68582860161117f565b9150509250929050565b6112c98161195f565b82525050565b6112d881611971565b82525050565b60006112e9826118ed565b6112f381856118f8565b93506113038185602086016119b4565b61130c81611a77565b840191505092915050565b60006113246023836118f8565b91507f45524332303a207472616e7366657220746f20746865207a65726f206164647260008301527f65737300000000000000000000000000000000000000000000000000000000006020830152604082019050919050565b600061138a6026836118f8565b91507f4f776e61626c653a206e6577206f776e657220697320746865207a65726f206160008301527f64647265737300000000000000000000000000000000000000000000000000006020830152604082019050919050565b60006113f06022836118f8565b91507f45524332303a20617070726f766520746f20746865207a65726f20616464726560008301527f73730000000000000000000000000000000000000000000000000000000000006020830152604082019050919050565b6000611456601d836118f8565b91507f45524332303a20696e73756666696369656e7420616c6c6f77616e63650000006000830152602082019050919050565b60006114966026836118f8565b91507f45524332303a207472616e7366657220616d6f756e742065786365656473206260008301527f616c616e636500000000000000000000000000000000000000000000000000006020830152604082019050919050565b60006114fc6018836118f8565b91507f4e6f7420616e20617574686f72697a6564206d696e74657200000000000000006000830152602082019050919050565b600061153c6020836118f8565b91507f4f776e61626c653a2063616c6c6572206973206e6f7420746865206f776e65726000830152602082019050919050565b600061157c6025836118f8565b91507f45524332303a207472616e736665722066726f6d20746865207a65726f20616460008301527f64726573730000000000000000000000000000000000000000000000000000006020830152604082019050919050565b60006115e26024836118f8565b91507f45524332303a20617070726f76652066726f6d20746865207a65726f2061646460008301527f72657373000000000000000000000000000000000000000000000000000000006020830152604082019050919050565b60006116486025836118f8565b91507f45524332303a2064656372656173656420616c6c6f77616e63652062656c6f7760008301527f207a65726f0000000000000000000000000000000000000000000000000000006020830152604082019050919050565b60006116ae601f836118f8565b91507f45524332303a206d696e7420746f20746865207a65726f2061646472657373006000830152602082019050919050565b6116ea8161199d565b82525050565b6116f9816119a7565b82525050565b600060208201905061171460008301846112c0565b92915050565b600060208201905061172f60008301846112cf565b92915050565b6000602082019050818103600083015261174f81846112de565b905092915050565b6000602082019050818103600083015261177081611317565b9050919050565b600060208201905081810360008301526117908161137d565b9050919050565b600060208201905081810360008301526117b0816113e3565b9050919050565b600060208201905081810360008301526117d081611449565b9050919050565b600060208201905081810360008301526117f081611489565b9050919050565b60006020820190508181036000830152611810816114ef565b9050919050565b600060208201905081810360008301526118308161152f565b9050919050565b600060208201905081810360008301526118508161156f565b9050919050565b60006020820190508181036000830152611870816115d5565b9050919050565b600060208201905081810360008301526118908161163b565b9050919050565b600060208201905081810360008301526118b0816116a1565b9050919050565b60006020820190506118cc60008301846116e1565b92915050565b60006020820190506118e760008301846116f0565b92915050565b600081519050919050565b600082825260208201905092915050565b60006119148261199d565b915061191f8361199d565b9250827fffffffffffffffffffffffffffffffffffffffffffffffffffffffffffffffff0382111561195457611953611a19565b5b828201905092915050565b600061196a8261197d565b9050919050565b60008115159050919050565b600073ffffffffffffffffffffffffffffffffffffffff82169050919050565b6000819050919050565b600060ff82169050919050565b60005b838110156119d25780820151818401526020810190506119b7565b838111156119e1576000848401525b50505050565b600060028204905060018216806119ff57607f821691505b60208210811415611a1357611a12611a48565b5b50919050565b7f4e487b7100000000000000000000000000000000000000000000000000000000600052601160045260246000fd5b7f4e487b7100000000000000000000000000000000000000000000000000000000600052602260045260246000fd5b6000601f19601f8301169050919050565b611a918161195f565b8114611a9c57600080fd5b50565b611aa881611971565b8114611ab357600080fd5b50565b611abf8161199d565b8114611aca57600080fd5b5056fea26469706673582212208db5762baa98b73a2ad0f9b709490cdd1549c33fc899599a67693bf6bf4ee73264736f6c63430008000033",
  "immutableReferences": {},
  "source": "// contracts/FungibleToken.sol\n// SPDX-License-Identifier: MIT\n\npragma solidity ^0.8.0;\n\nimport \"@openzeppelin/contracts/token/ERC20/ERC20.sol\";\nimport \"@openzeppelin/contracts/access/Ownable.sol\";\n\ncontract FungibleToken is ERC20, Ownable {\n    mapping(address => bool) public isAuthorizedMinter;\n\n    constructor(string memory name, string memory symbol) ERC20(name, symbol) {\n        isAuthorizedMinter[msg.sender] = true; // Contract deployer is an authorized minter\n    }\n\n    // Address of the LoyaltyProgram contract\n    address public loyaltyProgram;\n\n    modifier onlyAuthorizedMinter() {\n        require(\n            isAuthorizedMinter[msg.sender] || msg.sender == loyaltyProgram,\n            \"Not an authorized minter\"\n        );\n        _;\n    }\n\n    function authorizeLoyaltyProgram(\n        address _loyaltyProgram\n    ) external onlyOwner {\n        isAuthorizedMinter[_loyaltyProgram] = true;\n    }\n\n    function setAuthorizedMinter(\n        address minter,\n        bool status\n    ) external onlyOwner {\n        isAuthorizedMinter[minter] = status;\n    }\n\n    function mint(\n        address to,\n        uint256 amount\n    ) public onlyAuthorizedMinter returns (bool) {\n        _mint(to, amount);\n        return true;\n    }\n}\n",
  "sourcePath": "/Volumes/WorkShop/BLOCKCHAIN/(modified)loyalty-points-using-token copy/contracts/FungibleToken.sol",
  "compiler": {
    "name": "solc",
    "version": "0.8.0+commit.c7dfd78e.Emscripten.clang"
  },
  "schemaVersion": "3.4.15",
  "updatedAt": "2023-08-18T20:05:57.975Z",
  "networkType": "ethereum",
  "devdoc": {
    "kind": "dev",
    "methods": {
      "allowance(address,address)": {
        "details": "See {IERC20-allowance}."
      },
      "approve(address,uint256)": {
        "details": "See {IERC20-approve}. NOTE: If `amount` is the maximum `uint256`, the allowance is not updated on `transferFrom`. This is semantically equivalent to an infinite approval. Requirements: - `spender` cannot be the zero address."
      },
      "balanceOf(address)": {
        "details": "See {IERC20-balanceOf}."
      },
      "decimals()": {
        "details": "Returns the number of decimals used to get its user representation. For example, if `decimals` equals `2`, a balance of `505` tokens should be displayed to a user as `5.05` (`505 / 10 ** 2`). Tokens usually opt for a value of 18, imitating the relationship between Ether and Wei. This is the default value returned by this function, unless it's overridden. NOTE: This information is only used for _display_ purposes: it in no way affects any of the arithmetic of the contract, including {IERC20-balanceOf} and {IERC20-transfer}."
      },
      "decreaseAllowance(address,uint256)": {
        "details": "Atomically decreases the allowance granted to `spender` by the caller. This is an alternative to {approve} that can be used as a mitigation for problems described in {IERC20-approve}. Emits an {Approval} event indicating the updated allowance. Requirements: - `spender` cannot be the zero address. - `spender` must have allowance for the caller of at least `subtractedValue`."
      },
      "increaseAllowance(address,uint256)": {
        "details": "Atomically increases the allowance granted to `spender` by the caller. This is an alternative to {approve} that can be used as a mitigation for problems described in {IERC20-approve}. Emits an {Approval} event indicating the updated allowance. Requirements: - `spender` cannot be the zero address."
      },
      "name()": {
        "details": "Returns the name of the token."
      },
      "owner()": {
        "details": "Returns the address of the current owner."
      },
      "renounceOwnership()": {
        "details": "Leaves the contract without owner. It will not be possible to call `onlyOwner` functions. Can only be called by the current owner. NOTE: Renouncing ownership will leave the contract without an owner, thereby disabling any functionality that is only available to the owner."
      },
      "symbol()": {
        "details": "Returns the symbol of the token, usually a shorter version of the name."
      },
      "totalSupply()": {
        "details": "See {IERC20-totalSupply}."
      },
      "transfer(address,uint256)": {
        "details": "See {IERC20-transfer}. Requirements: - `to` cannot be the zero address. - the caller must have a balance of at least `amount`."
      },
      "transferFrom(address,address,uint256)": {
        "details": "See {IERC20-transferFrom}. Emits an {Approval} event indicating the updated allowance. This is not required by the EIP. See the note at the beginning of {ERC20}. NOTE: Does not update the allowance if the current allowance is the maximum `uint256`. Requirements: - `from` and `to` cannot be the zero address. - `from` must have a balance of at least `amount`. - the caller must have allowance for ``from``'s tokens of at least `amount`."
      },
      "transferOwnership(address)": {
        "details": "Transfers ownership of the contract to a new account (`newOwner`). Can only be called by the current owner."
      }
    },
    "version": 1
  },
  "userdoc": {
    "kind": "user",
    "methods": {},
    "version": 1
  }
}