{
  "contractName": "LoyaltyProgram",
  "abi": [
    {
      "inputs": [
        {
          "internalType": "address",
          "name": "_token",
          "type": "address"
        }
      ],
      "stateMutability": "nonpayable",
      "type": "constructor"
    },
    {
      "anonymous": false,
      "inputs": [
        {
          "indexed": true,
          "internalType": "address",
          "name": "user",
          "type": "address"
        },
        {
          "indexed": false,
          "internalType": "uint256",
          "name": "tokenId",
          "type": "uint256"
        },
        {
          "indexed": false,
          "internalType": "string",
          "name": "orderId",
          "type": "string"
        },
        {
          "indexed": false,
          "internalType": "string",
          "name": "orderName",
          "type": "string"
        },
        {
          "indexed": false,
          "internalType": "uint256",
          "name": "amount",
          "type": "uint256"
        },
        {
          "indexed": false,
          "internalType": "string",
          "name": "action",
          "type": "string"
        },
        {
          "indexed": false,
          "internalType": "uint256",
          "name": "timestamp",
          "type": "uint256"
        },
        {
          "indexed": false,
          "internalType": "uint256",
          "name": "expireTimestamp",
          "type": "uint256"
        }
      ],
      "name": "PointsEarned",
      "type": "event"
    },
    {
      "anonymous": false,
      "inputs": [
        {
          "indexed": true,
          "internalType": "address",
          "name": "user",
          "type": "address"
        },
        {
          "indexed": false,
          "internalType": "uint256",
          "name": "tokenId",
          "type": "uint256"
        },
        {
          "indexed": false,
          "internalType": "string",
          "name": "orderId",
          "type": "string"
        },
        {
          "indexed": false,
          "internalType": "uint256",
          "name": "amount",
          "type": "uint256"
        },
        {
          "indexed": false,
          "internalType": "string",
          "name": "action",
          "type": "string"
        },
        {
          "indexed": false,
          "internalType": "uint256",
          "name": "timestamp",
          "type": "uint256"
        },
        {
          "indexed": false,
          "internalType": "uint256",
          "name": "expireTimestamp",
          "type": "uint256"
        }
      ],
      "name": "PointsExpired",
      "type": "event"
    },
    {
      "anonymous": false,
      "inputs": [
        {
          "indexed": true,
          "internalType": "address",
          "name": "user",
          "type": "address"
        },
        {
          "indexed": false,
          "internalType": "uint256",
          "name": "tokenId",
          "type": "uint256"
        },
        {
          "indexed": false,
          "internalType": "string",
          "name": "orderId",
          "type": "string"
        },
        {
          "indexed": false,
          "internalType": "string",
          "name": "orderName",
          "type": "string"
        },
        {
          "indexed": false,
          "internalType": "uint256",
          "name": "amount",
          "type": "uint256"
        },
        {
          "indexed": false,
          "internalType": "string",
          "name": "action",
          "type": "string"
        },
        {
          "indexed": false,
          "internalType": "uint256",
          "name": "timestamp",
          "type": "uint256"
        },
        {
          "indexed": false,
          "internalType": "uint256",
          "name": "expireTimestamp",
          "type": "uint256"
        },
        {
          "indexed": false,
          "internalType": "uint256",
          "name": "deductedPoints",
          "type": "uint256"
        },
        {
          "indexed": false,
          "internalType": "uint256[]",
          "name": "fromTokenIds",
          "type": "uint256[]"
        }
      ],
      "name": "PointsRedeemed",
      "type": "event"
    },
    {
      "anonymous": false,
      "inputs": [
        {
          "indexed": true,
          "internalType": "address",
          "name": "user",
          "type": "address"
        },
        {
          "indexed": false,
          "internalType": "uint256",
          "name": "tokenId",
          "type": "uint256"
        },
        {
          "indexed": false,
          "internalType": "string",
          "name": "orderId",
          "type": "string"
        },
        {
          "indexed": false,
          "internalType": "string",
          "name": "orderName",
          "type": "string"
        },
        {
          "indexed": false,
          "internalType": "uint256",
          "name": "amount",
          "type": "uint256"
        },
        {
          "indexed": false,
          "internalType": "string",
          "name": "action",
          "type": "string"
        },
        {
          "indexed": false,
          "internalType": "uint256",
          "name": "timestamp",
          "type": "uint256"
        },
        {
          "indexed": false,
          "internalType": "uint256",
          "name": "expireTimestamp",
          "type": "uint256"
        }
      ],
      "name": "PointsRefund",
      "type": "event"
    },
    {
      "inputs": [
        {
          "internalType": "address",
          "name": "",
          "type": "address"
        },
        {
          "internalType": "uint256",
          "name": "",
          "type": "uint256"
        }
      ],
      "name": "loyaltyPoints",
      "outputs": [
        {
          "internalType": "uint256",
          "name": "tokenId",
          "type": "uint256"
        },
        {
          "internalType": "string",
          "name": "orderId",
          "type": "string"
        },
        {
          "internalType": "string",
          "name": "orderName",
          "type": "string"
        },
        {
          "internalType": "uint256",
          "name": "amount",
          "type": "uint256"
        },
        {
          "internalType": "string",
          "name": "action",
          "type": "string"
        },
        {
          "internalType": "uint256",
          "name": "timestamp",
          "type": "uint256"
        },
        {
          "internalType": "uint256",
          "name": "expireTimestamp",
          "type": "uint256"
        },
        {
          "internalType": "uint256",
          "name": "deductedPoints",
          "type": "uint256"
        },
        {
          "internalType": "bool",
          "name": "expired",
          "type": "bool"
        }
      ],
      "stateMutability": "view",
      "type": "function",
      "constant": true
    },
    {
      "inputs": [],
      "name": "token",
      "outputs": [
        {
          "internalType": "contract FungibleToken",
          "name": "",
          "type": "address"
        }
      ],
      "stateMutability": "view",
      "type": "function",
      "constant": true
    },
    {
      "inputs": [
        {
          "internalType": "address",
          "name": "",
          "type": "address"
        }
      ],
      "name": "tokenCounter",
      "outputs": [
        {
          "internalType": "uint256",
          "name": "",
          "type": "uint256"
        }
      ],
      "stateMutability": "view",
      "type": "function",
      "constant": true
    },
    {
      "inputs": [
        {
          "internalType": "address",
          "name": "",
          "type": "address"
        }
      ],
      "name": "totalPoints",
      "outputs": [
        {
          "internalType": "uint256",
          "name": "",
          "type": "uint256"
        }
      ],
      "stateMutability": "view",
      "type": "function",
      "constant": true
    },
    {
      "inputs": [
        {
          "internalType": "uint256",
          "name": "amount",
          "type": "uint256"
        },
        {
          "internalType": "string",
          "name": "orderId",
          "type": "string"
        },
        {
          "internalType": "string",
          "name": "orderName",
          "type": "string"
        }
      ],
      "name": "earnPoints",
      "outputs": [],
      "stateMutability": "nonpayable",
      "type": "function"
    },
    {
      "inputs": [
        {
          "internalType": "uint256",
          "name": "amount",
          "type": "uint256"
        },
        {
          "internalType": "string",
          "name": "orderId",
          "type": "string"
        },
        {
          "internalType": "string",
          "name": "orderName",
          "type": "string"
        }
      ],
      "name": "refundPoints",
      "outputs": [],
      "stateMutability": "nonpayable",
      "type": "function"
    },
    {
      "inputs": [
        {
          "internalType": "uint256",
          "name": "amount",
          "type": "uint256"
        },
        {
          "internalType": "string",
          "name": "orderId",
          "type": "string"
        },
        {
          "internalType": "string",
          "name": "orderName",
          "type": "string"
        }
      ],
      "name": "redeemPoints",
      "outputs": [],
      "stateMutability": "nonpayable",
      "type": "function"
    },
    {
      "inputs": [
        {
          "internalType": "uint256",
          "name": "tokenId",
          "type": "uint256"
        },
        {
          "internalType": "string",
          "name": "orderId",
          "type": "string"
        }
      ],
      "name": "expirePoints",
      "outputs": [],
      "stateMutability": "nonpayable",
      "type": "function"
    },
    {
      "inputs": [
        {
          "internalType": "address",
          "name": "user",
          "type": "address"
        }
      ],
      "name": "getTotalEarnedPoints",
      "outputs": [
        {
          "internalType": "uint256",
          "name": "",
          "type": "uint256"
        }
      ],
      "stateMutability": "view",
      "type": "function",
      "constant": true
    },
    {
      "inputs": [
        {
          "internalType": "address",
          "name": "user",
          "type": "address"
        }
      ],
      "name": "getEarnedPointsWithTimestamps",
      "outputs": [
        {
          "components": [
            {
              "internalType": "uint256",
              "name": "tokenId",
              "type": "uint256"
            },
            {
              "internalType": "string",
              "name": "orderId",
              "type": "string"
            },
            {
              "internalType": "string",
              "name": "orderName",
              "type": "string"
            },
            {
              "internalType": "uint256",
              "name": "amount",
              "type": "uint256"
            },
            {
              "internalType": "string",
              "name": "action",
              "type": "string"
            },
            {
              "internalType": "uint256",
              "name": "timestamp",
              "type": "uint256"
            },
            {
              "internalType": "uint256",
              "name": "expireTimestamp",
              "type": "uint256"
            },
            {
              "internalType": "uint256",
              "name": "deductedPoints",
              "type": "uint256"
            },
            {
              "internalType": "uint256[]",
              "name": "fromTokenIds",
              "type": "uint256[]"
            },
            {
              "internalType": "bool",
              "name": "expired",
              "type": "bool"
            }
          ],
          "internalType": "struct LoyaltyProgram.LoyaltyPointEntry[]",
          "name": "",
          "type": "tuple[]"
        }
      ],
      "stateMutability": "view",
      "type": "function",
      "constant": true
    }
  ],
  "bytecode": "0x60806040523480156200001157600080fd5b50604051620036ee380380620036ee833981810160405281019062000037919062000095565b806000806101000a81548173ffffffffffffffffffffffffffffffffffffffff021916908373ffffffffffffffffffffffffffffffffffffffff160217905550506200010f565b6000815190506200008f81620000f5565b92915050565b600060208284031215620000a857600080fd5b6000620000b8848285016200007e565b91505092915050565b6000620000ce82620000d5565b9050919050565b600073ffffffffffffffffffffffffffffffffffffffff82169050919050565b6200010081620000c1565b81146200010c57600080fd5b50565b6135cf806200011f6000396000f3fe608060405234801561001057600080fd5b506004361061009e5760003560e01c8063793d4a5611610066578063793d4a561461017f5780638560a3291461019b578063ac66b56f146101d3578063bc88b5dc146101ef578063fc0c546a1461020b5761009e565b80630fac9100146100a357806334fb2fb5146100d3578063383073a0146101035780635428abca1461011f5780635f48d5671461014f575b600080fd5b6100bd60048036038101906100b89190612505565b610229565b6040516100ca9190612efd565b60405180910390f35b6100ed60048036038101906100e89190612505565b610241565b6040516100fa9190612dc0565b60405180910390f35b61011d600480360381019061011891906125e7565b610629565b005b61013960048036038101906101349190612505565b610aa4565b6040516101469190612efd565b60405180910390f35b61016960048036038101906101649190612505565b610aed565b6040516101769190612efd565b60405180910390f35b610199600480360381019061019491906125e7565b610b05565b005b6101b560048036038101906101b0919061252e565b610f7e565b6040516101ca99989796959493929190612f18565b60405180910390f35b6101ed60048036038101906101e891906125e7565b61117e565b005b61020960048036038101906102049190612593565b611a51565b005b610213612150565b6040516102209190612de2565b60405180910390f35b60016020528060005260406000206000915090505481565b60606000600260008473ffffffffffffffffffffffffffffffffffffffff1673ffffffffffffffffffffffffffffffffffffffff16815260200190815260200160002054905060008167ffffffffffffffff8111156102c9577f4e487b7100000000000000000000000000000000000000000000000000000000600052604160045260246000fd5b60405190808252806020026020018201604052801561030257816020015b6102ef612319565b8152602001906001900390816102e75790505b50905060005b8281101561061e57600360008673ffffffffffffffffffffffffffffffffffffffff1673ffffffffffffffffffffffffffffffffffffffff168152602001908152602001600020600082815260200190815260200160002060405180610140016040529081600082015481526020016001820180546103869061343b565b80601f01602080910402602001604051908101604052809291908181526020018280546103b29061343b565b80156103ff5780601f106103d4576101008083540402835291602001916103ff565b820191906000526020600020905b8154815290600101906020018083116103e257829003601f168201915b505050505081526020016002820180546104189061343b565b80601f01602080910402602001604051908101604052809291908181526020018280546104449061343b565b80156104915780601f1061046657610100808354040283529160200191610491565b820191906000526020600020905b81548152906001019060200180831161047457829003601f168201915b50505050508152602001600382015481526020016004820180546104b49061343b565b80601f01602080910402602001604051908101604052809291908181526020018280546104e09061343b565b801561052d5780601f106105025761010080835404028352916020019161052d565b820191906000526020600020905b81548152906001019060200180831161051057829003601f168201915b50505050508152602001600582015481526020016006820154815260200160078201548152602001600882018054806020026020016040519081016040528092919081815260200182805480156105a357602002820191906000526020600020905b81548152602001906001019080831161058f575b505050505081526020016009820160009054906101000a900460ff161515151581525050828281518110610600577f4e487b7100000000000000000000000000000000000000000000000000000000600052603260045260246000fd5b602002602001018190525080806106169061346d565b915050610308565b508092505050919050565b6000831161066c576040517f08c379a000000000000000000000000000000000000000000000000000000000815260040161066390612e5d565b60405180910390fd5b60008054906101000a900473ffffffffffffffffffffffffffffffffffffffff1673ffffffffffffffffffffffffffffffffffffffff166323b872dd3330866040518463ffffffff1660e01b81526004016106c993929190612d60565b602060405180830381600087803b1580156106e357600080fd5b505af11580156106f7573d6000803e3d6000fd5b505050506040513d601f19601f8201168201806040525081019061071b919061256a565b61075a576040517f08c379a000000000000000000000000000000000000000000000000000000000815260040161075190612e1d565b60405180910390fd5b6000600260003373ffffffffffffffffffffffffffffffffffffffff1673ffffffffffffffffffffffffffffffffffffffff16815260200190815260200160002054905060006301e13380426107b09190613303565b905060606107be8184612174565b90506040518061014001604052808481526020018681526020018581526020018781526020016040518060400160405280600481526020017f6561726e0000000000000000000000000000000000000000000000000000000081525081526020014281526020018381526020016000815260200182815260200160001515815250600360003373ffffffffffffffffffffffffffffffffffffffff1673ffffffffffffffffffffffffffffffffffffffff16815260200190815260200160002060008581526020019081526020016000206000820151816000015560208201518160010190805190602001906108b592919061236e565b5060408201518160020190805190602001906108d292919061236e565b506060820151816003015560808201518160040190805190602001906108f992919061236e565b5060a0820151816005015560c0820151816006015560e082015181600701556101008201518160080190805190602001906109359291906123f4565b506101208201518160090160006101000a81548160ff0219169083151502179055509050506109ac86600160003373ffffffffffffffffffffffffffffffffffffffff1673ffffffffffffffffffffffffffffffffffffffff168152602001908152602001600020546122ed90919063ffffffff16565b600160003373ffffffffffffffffffffffffffffffffffffffff1673ffffffffffffffffffffffffffffffffffffffff16815260200190815260200160002081905550600260003373ffffffffffffffffffffffffffffffffffffffff1673ffffffffffffffffffffffffffffffffffffffff1681526020019081526020016000206000815480929190610a3f9061346d565b91905055503373ffffffffffffffffffffffffffffffffffffffff167ff750381275450e204c88dcb6761eac06f876c1145fffe8a00403bff4c69b1a488487878a4288604051610a94969594939291906130e3565b60405180910390a2505050505050565b6000600160008373ffffffffffffffffffffffffffffffffffffffff1673ffffffffffffffffffffffffffffffffffffffff168152602001908152602001600020549050919050565b60026020528060005260406000206000915090505481565b60008311610b48576040517f08c379a0000000000000000000000000000000000000000000000000000000008152600401610b3f90612e5d565b60405180910390fd5b60008054906101000a900473ffffffffffffffffffffffffffffffffffffffff1673ffffffffffffffffffffffffffffffffffffffff166323b872dd3330866040518463ffffffff1660e01b8152600401610ba593929190612d60565b602060405180830381600087803b158015610bbf57600080fd5b505af1158015610bd3573d6000803e3d6000fd5b505050506040513d601f19601f82011682018060405250810190610bf7919061256a565b610c36576040517f08c379a0000000000000000000000000000000000000000000000000000000008152600401610c2d90612e1d565b60405180910390fd5b6000600260003373ffffffffffffffffffffffffffffffffffffffff1673ffffffffffffffffffffffffffffffffffffffff168152602001908152602001600020549050600061012c42610c8a9190613303565b90506060610c988184612174565b90506040518061014001604052808481526020018681526020018581526020018781526020016040518060400160405280600681526020017f726566756e64000000000000000000000000000000000000000000000000000081525081526020014281526020018381526020016000815260200182815260200160001515815250600360003373ffffffffffffffffffffffffffffffffffffffff1673ffffffffffffffffffffffffffffffffffffffff1681526020019081526020016000206000858152602001908152602001600020600082015181600001556020820151816001019080519060200190610d8f92919061236e565b506040820151816002019080519060200190610dac92919061236e565b50606082015181600301556080820151816004019080519060200190610dd392919061236e565b5060a0820151816005015560c0820151816006015560e08201518160070155610100820151816008019080519060200190610e0f9291906123f4565b506101208201518160090160006101000a81548160ff021916908315150217905550905050610e8686600160003373ffffffffffffffffffffffffffffffffffffffff1673ffffffffffffffffffffffffffffffffffffffff168152602001908152602001600020546122ed90919063ffffffff16565b600160003373ffffffffffffffffffffffffffffffffffffffff1673ffffffffffffffffffffffffffffffffffffffff16815260200190815260200160002081905550600260003373ffffffffffffffffffffffffffffffffffffffff1673ffffffffffffffffffffffffffffffffffffffff1681526020019081526020016000206000815480929190610f199061346d565b91905055503373ffffffffffffffffffffffffffffffffffffffff167ff5017393215a76bb690b0b8bc9c8996c497340a1360d058848bdbe01da301dac8487878a4288604051610f6e96959493929190613061565b60405180910390a2505050505050565b600360205281600052604060002060205280600052604060002060009150915050806000015490806001018054610fb49061343b565b80601f0160208091040260200160405190810160405280929190818152602001828054610fe09061343b565b801561102d5780601f106110025761010080835404028352916020019161102d565b820191906000526020600020905b81548152906001019060200180831161101057829003601f168201915b5050505050908060020180546110429061343b565b80601f016020809104026020016040519081016040528092919081815260200182805461106e9061343b565b80156110bb5780601f10611090576101008083540402835291602001916110bb565b820191906000526020600020905b81548152906001019060200180831161109e57829003601f168201915b5050505050908060030154908060040180546110d69061343b565b80601f01602080910402602001604051908101604052809291908181526020018280546111029061343b565b801561114f5780601f106111245761010080835404028352916020019161114f565b820191906000526020600020905b81548152906001019060200180831161113257829003601f168201915b5050505050908060050154908060060154908060070154908060090160009054906101000a900460ff16905089565b600083116111c1576040517f08c379a00000000000000000000000000000000000000000000000000000000081526004016111b890612e9d565b60405180910390fd5b82600160003373ffffffffffffffffffffffffffffffffffffffff1673ffffffffffffffffffffffffffffffffffffffff168152602001908152602001600020541015611243576040517f08c379a000000000000000000000000000000000000000000000000000000000815260040161123a90612edd565b60405180910390fd5b6000600260003373ffffffffffffffffffffffffffffffffffffffff1673ffffffffffffffffffffffffffffffffffffffff16815260200190815260200160002054905060008490506000606060005b84811015611632576000600360003373ffffffffffffffffffffffffffffffffffffffff1673ffffffffffffffffffffffffffffffffffffffff168152602001908152602001600020600083815260200190815260200160002060030154118015611351575042600360003373ffffffffffffffffffffffffffffffffffffffff1673ffffffffffffffffffffffffffffffffffffffff16815260200190815260200160002060008381526020019081526020016000206006015410155b80156113e357507ff943a5309b9b51c0b25ae4b14fabba688e84a1bddc50bad9cac431110d945616600360003373ffffffffffffffffffffffffffffffffffffffff1673ffffffffffffffffffffffffffffffffffffffff16815260200190815260200160002060008381526020019081526020016000206004016040516113d99190612d49565b6040518091039020145b1561161f5760006114a3600360003373ffffffffffffffffffffffffffffffffffffffff1673ffffffffffffffffffffffffffffffffffffffff168152602001908152602001600020600084815260200190815260200160002060070154600360003373ffffffffffffffffffffffffffffffffffffffff1673ffffffffffffffffffffffffffffffffffffffff16815260200190815260200160002060008581526020019081526020016000206003015461230390919063ffffffff16565b905060008186116114b457856114b6565b815b9050600061152082600360003373ffffffffffffffffffffffffffffffffffffffff1673ffffffffffffffffffffffffffffffffffffffff1681526020019081526020016000206000878152602001908152602001600020600701546122ed90919063ffffffff16565b90506000600360003373ffffffffffffffffffffffffffffffffffffffff1673ffffffffffffffffffffffffffffffffffffffff168152602001908152602001600020600086815260200190815260200160002060000154905081600360003373ffffffffffffffffffffffffffffffffffffffff1673ffffffffffffffffffffffffffffffffffffffff1681526020019081526020016000206000878152602001908152602001600020600701819055506115e583886122ed90919063ffffffff16565b96506115f18682612174565b9550611606838961230390919063ffffffff16565b9750600088141561161a5750505050611632565b505050505b808061162a9061346d565b915050611293565b5060008211611676576040517f08c379a000000000000000000000000000000000000000000000000000000000815260040161166d90612e3d565b60405180910390fd5b6116c882600160003373ffffffffffffffffffffffffffffffffffffffff1673ffffffffffffffffffffffffffffffffffffffff1681526020019081526020016000205461230390919063ffffffff16565b600160003373ffffffffffffffffffffffffffffffffffffffff1673ffffffffffffffffffffffffffffffffffffffff1681526020019081526020016000208190555060008054906101000a900473ffffffffffffffffffffffffffffffffffffffff1673ffffffffffffffffffffffffffffffffffffffff1663a9059cbb33846040518363ffffffff1660e01b8152600401611766929190612d97565b602060405180830381600087803b15801561178057600080fd5b505af1158015611794573d6000803e3d6000fd5b505050506040513d601f19601f820116820180604052508101906117b8919061256a565b506000600260003373ffffffffffffffffffffffffffffffffffffffff1673ffffffffffffffffffffffffffffffffffffffff1681526020019081526020016000205490506040518061014001604052808281526020018881526020018781526020018481526020016040518060400160405280600681526020017f72656465656d0000000000000000000000000000000000000000000000000000815250815260200142815260200142815260200184815260200183815260200160001515815250600360003373ffffffffffffffffffffffffffffffffffffffff1673ffffffffffffffffffffffffffffffffffffffff16815260200190815260200160002060008381526020019081526020016000206000820151816000015560208201518160010190805190602001906118f192919061236e565b50604082015181600201908051906020019061190e92919061236e565b5060608201518160030155608082015181600401908051906020019061193592919061236e565b5060a0820151816005015560c0820151816006015560e082015181600701556101008201518160080190805190602001906119719291906123f4565b506101208201518160090160006101000a81548160ff021916908315150217905550905050600260003373ffffffffffffffffffffffffffffffffffffffff1673ffffffffffffffffffffffffffffffffffffffff16815260200190815260200160002060008154809291906119e69061346d565b91905055503373ffffffffffffffffffffffffffffffffffffffff167f8639a7a345dcd1cc3fb7f309c2e1a4ce728219ed4cb10cf68ac4b5ec8ac1076f8289898742428a8a604051611a3f989796959493929190612fba565b60405180910390a25050505050505050565b6000600360003373ffffffffffffffffffffffffffffffffffffffff1673ffffffffffffffffffffffffffffffffffffffff16815260200190815260200160002060008481526020019081526020016000206003015411611ae7576040517f08c379a0000000000000000000000000000000000000000000000000000000008152600401611ade90612ebd565b60405180910390fd5b7ff943a5309b9b51c0b25ae4b14fabba688e84a1bddc50bad9cac431110d945616600360003373ffffffffffffffffffffffffffffffffffffffff1673ffffffffffffffffffffffffffffffffffffffff1681526020019081526020016000206000848152602001908152602001600020600401604051611b689190612d49565b604051809103902014611bb0576040517f08c379a0000000000000000000000000000000000000000000000000000000008152600401611ba790612e7d565b60405180910390fd5b600360003373ffffffffffffffffffffffffffffffffffffffff1673ffffffffffffffffffffffffffffffffffffffff168152602001908152602001600020600083815260200190815260200160002060090160009054906101000a900460ff1615611c1b5761214c565b600360003373ffffffffffffffffffffffffffffffffffffffff1673ffffffffffffffffffffffffffffffffffffffff168152602001908152602001600020600083815260200190815260200160002060060154421015611c7b5761214c565b6000611d36600360003373ffffffffffffffffffffffffffffffffffffffff1673ffffffffffffffffffffffffffffffffffffffff168152602001908152602001600020600085815260200190815260200160002060070154600360003373ffffffffffffffffffffffffffffffffffffffff1673ffffffffffffffffffffffffffffffffffffffff16815260200190815260200160002060008681526020019081526020016000206003015461230390919063ffffffff16565b905060008111611d7b576040517f08c379a0000000000000000000000000000000000000000000000000000000008152600401611d7290612dfd565b60405180910390fd5b6001600360003373ffffffffffffffffffffffffffffffffffffffff1673ffffffffffffffffffffffffffffffffffffffff168152602001908152602001600020600085815260200190815260200160002060090160006101000a81548160ff021916908315150217905550611e3981600160003373ffffffffffffffffffffffffffffffffffffffff1673ffffffffffffffffffffffffffffffffffffffff1681526020019081526020016000205461230390919063ffffffff16565b600160003373ffffffffffffffffffffffffffffffffffffffff1673ffffffffffffffffffffffffffffffffffffffff168152602001908152602001600020819055506060611e888185612174565b90506000600260003373ffffffffffffffffffffffffffffffffffffffff1673ffffffffffffffffffffffffffffffffffffffff1681526020019081526020016000205490506040518061014001604052808281526020018581526020016040518060400160405280600d81526020017f4578706972656420436f696e730000000000000000000000000000000000000081525081526020018481526020016040518060400160405280600681526020017f657870697265000000000000000000000000000000000000000000000000000081525081526020014281526020014281526020016000815260200183815260200160011515815250600360003373ffffffffffffffffffffffffffffffffffffffff1673ffffffffffffffffffffffffffffffffffffffff1681526020019081526020016000206000838152602001908152602001600020600082015181600001556020820151816001019080519060200190611ff892919061236e565b50604082015181600201908051906020019061201592919061236e565b5060608201518160030155608082015181600401908051906020019061203c92919061236e565b5060a0820151816005015560c0820151816006015560e082015181600701556101008201518160080190805190602001906120789291906123f4565b506101208201518160090160006101000a81548160ff021916908315150217905550905050600260003373ffffffffffffffffffffffffffffffffffffffff1673ffffffffffffffffffffffffffffffffffffffff16815260200190815260200160002060008154809291906120ed9061346d565b91905055503373ffffffffffffffffffffffffffffffffffffffff167f761f48ff6fe70faa070efe8babf49caf7a8ba19252f947f6e9321967112b910d8286864242604051612140959493929190613165565b60405180910390a25050505b5050565b60008054906101000a900473ffffffffffffffffffffffffffffffffffffffff1681565b60606000600184516121869190613303565b67ffffffffffffffff8111156121c5577f4e487b7100000000000000000000000000000000000000000000000000000000600052604160045260246000fd5b6040519080825280602002602001820160405280156121f35781602001602082028036833780820191505090505b50905060005b845181101561229b5784818151811061223b577f4e487b7100000000000000000000000000000000000000000000000000000000600052603260045260246000fd5b602002602001015182828151811061227c577f4e487b7100000000000000000000000000000000000000000000000000000000600052603260045260246000fd5b60200260200101818152505080806122939061346d565b9150506121f9565b5082818551815181106122d7577f4e487b7100000000000000000000000000000000000000000000000000000000600052603260045260246000fd5b6020026020010181815250508091505092915050565b600081836122fb9190613303565b905092915050565b600081836123119190613359565b905092915050565b6040518061014001604052806000815260200160608152602001606081526020016000815260200160608152602001600081526020016000815260200160008152602001606081526020016000151581525090565b82805461237a9061343b565b90600052602060002090601f01602090048101928261239c57600085556123e3565b82601f106123b557805160ff19168380011785556123e3565b828001600101855582156123e3579182015b828111156123e25782518255916020019190600101906123c7565b5b5090506123f09190612441565b5090565b828054828255906000526020600020908101928215612430579160200282015b8281111561242f578251825591602001919060010190612414565b5b50905061243d9190612441565b5090565b5b8082111561245a576000816000905550600101612442565b5090565b600061247161246c84613203565b6131d2565b90508281526020810184848401111561248957600080fd5b6124948482856133f9565b509392505050565b6000813590506124ab81613554565b92915050565b6000815190506124c08161356b565b92915050565b600082601f8301126124d757600080fd5b81356124e784826020860161245e565b91505092915050565b6000813590506124ff81613582565b92915050565b60006020828403121561251757600080fd5b60006125258482850161249c565b91505092915050565b6000806040838503121561254157600080fd5b600061254f8582860161249c565b9250506020612560858286016124f0565b9150509250929050565b60006020828403121561257c57600080fd5b600061258a848285016124b1565b91505092915050565b600080604083850312156125a657600080fd5b60006125b4858286016124f0565b925050602083013567ffffffffffffffff8111156125d157600080fd5b6125dd858286016124c6565b9150509250929050565b6000806000606084860312156125fc57600080fd5b600061260a868287016124f0565b935050602084013567ffffffffffffffff81111561262757600080fd5b612633868287016124c6565b925050604084013567ffffffffffffffff81111561265057600080fd5b61265c868287016124c6565b9150509250925092565b60006126728383612c3c565b905092915050565b60006126868383612d2b565b60208301905092915050565b61269b8161338d565b82525050565b60006126ac82613268565b6126b681856132a3565b9350836020820285016126c885613233565b8060005b8581101561270457848403895281516126e58582612666565b94506126f083613289565b925060208a019950506001810190506126cc565b50829750879550505050505092915050565b600061272182613273565b61272b81856132b4565b935061273683613243565b8060005b8381101561276757815161274e888261267a565b975061275983613296565b92505060018101905061273a565b5085935050505092915050565b600061277f82613273565b61278981856132c5565b935061279483613243565b8060005b838110156127c55781516127ac888261267a565b97506127b783613296565b925050600181019050612798565b5085935050505092915050565b6127db8161339f565b82525050565b6127ea8161339f565b82525050565b600081546127fd8161343b565b61280781866132d6565b94506001821660008114612822576001811461283357612866565b60ff19831686528186019350612866565b61283c85613253565b60005b8381101561285e5781548189015260018201915060208101905061283f565b838801955050505b50505092915050565b612878816133d5565b82525050565b60006128898261327e565b61289381856132e1565b93506128a3818560208601613408565b6128ac81613543565b840191505092915050565b60006128c28261327e565b6128cc81856132f2565b93506128dc818560208601613408565b6128e581613543565b840191505092915050565b60006128fd6013836132f2565b91507f4e6f20706f696e747320746f20657870697265000000000000000000000000006000830152602082019050919050565b600061293d600f836132f2565b91507f5472616e73666572206661696c656400000000000000000000000000000000006000830152602082019050919050565b600061297d6006836132f2565b91507f72656465656d00000000000000000000000000000000000000000000000000006000830152602082019050919050565b60006129bd6022836132f2565b91507f4e6f20706f696e747320617661696c61626c6520666f7220726564656d70746960008301527f6f6e0000000000000000000000000000000000000000000000000000000000006020830152604082019050919050565b6000612a23601d836132f2565b91507f416d6f756e74206d7573742062652067726561746572207468616e20300000006000830152602082019050919050565b6000612a636006836132f2565b91507f726566756e6400000000000000000000000000000000000000000000000000006000830152602082019050919050565b6000612aa36021836132f2565b91507f4f6e6c7920276561726e2720706f696e74732063616e2062652065787069726560008301527f64000000000000000000000000000000000000000000000000000000000000006020830152604082019050919050565b6000612b09601d836132f2565b91507f506f696e7473206d7573742062652067726561746572207468616e20300000006000830152602082019050919050565b6000612b496006836132f2565b91507f65787069726500000000000000000000000000000000000000000000000000006000830152602082019050919050565b6000612b896010836132f2565b91507f496e76616c696420746f6b656e204944000000000000000000000000000000006000830152602082019050919050565b6000612bc96013836132f2565b91507f496e73756666696369656e7420706f696e7473000000000000000000000000006000830152602082019050919050565b6000612c096004836132f2565b91507f6561726e000000000000000000000000000000000000000000000000000000006000830152602082019050919050565b600061014083016000830151612c556000860182612d2b565b5060208301518482036020860152612c6d828261287e565b91505060408301518482036040860152612c87828261287e565b9150506060830151612c9c6060860182612d2b565b5060808301518482036080860152612cb4828261287e565b91505060a0830151612cc960a0860182612d2b565b5060c0830151612cdc60c0860182612d2b565b5060e0830151612cef60e0860182612d2b565b50610100830151848203610100860152612d098282612716565b915050610120830151612d206101208601826127d2565b508091505092915050565b612d34816133cb565b82525050565b612d43816133cb565b82525050565b6000612d5582846127f0565b915081905092915050565b6000606082019050612d756000830186612692565b612d826020830185612692565b612d8f6040830184612d3a565b949350505050565b6000604082019050612dac6000830185612692565b612db96020830184612d3a565b9392505050565b60006020820190508181036000830152612dda81846126a1565b905092915050565b6000602082019050612df7600083018461286f565b92915050565b60006020820190508181036000830152612e16816128f0565b9050919050565b60006020820190508181036000830152612e3681612930565b9050919050565b60006020820190508181036000830152612e56816129b0565b9050919050565b60006020820190508181036000830152612e7681612a16565b9050919050565b60006020820190508181036000830152612e9681612a96565b9050919050565b60006020820190508181036000830152612eb681612afc565b9050919050565b60006020820190508181036000830152612ed681612b7c565b9050919050565b60006020820190508181036000830152612ef681612bbc565b9050919050565b6000602082019050612f126000830184612d3a565b92915050565b600061012082019050612f2e600083018c612d3a565b8181036020830152612f40818b6128b7565b90508181036040830152612f54818a6128b7565b9050612f636060830189612d3a565b8181036080830152612f7581886128b7565b9050612f8460a0830187612d3a565b612f9160c0830186612d3a565b612f9e60e0830185612d3a565b612fac6101008301846127e1565b9a9950505050505050505050565b600061012082019050612fd0600083018b612d3a565b8181036020830152612fe2818a6128b7565b90508181036040830152612ff681896128b7565b90506130056060830188612d3a565b818103608083015261301681612970565b905061302560a0830187612d3a565b61303260c0830186612d3a565b61303f60e0830185612d3a565b8181036101008301526130528184612774565b90509998505050505050505050565b600060e0820190506130766000830189612d3a565b818103602083015261308881886128b7565b9050818103604083015261309c81876128b7565b90506130ab6060830186612d3a565b81810360808301526130bc81612a56565b90506130cb60a0830185612d3a565b6130d860c0830184612d3a565b979650505050505050565b600060e0820190506130f86000830189612d3a565b818103602083015261310a81886128b7565b9050818103604083015261311e81876128b7565b905061312d6060830186612d3a565b818103608083015261313e81612bfc565b905061314d60a0830185612d3a565b61315a60c0830184612d3a565b979650505050505050565b600060c08201905061317a6000830188612d3a565b818103602083015261318c81876128b7565b905061319b6040830186612d3a565b81810360608301526131ac81612b3c565b90506131bb6080830185612d3a565b6131c860a0830184612d3a565b9695505050505050565b6000604051905081810181811067ffffffffffffffff821117156131f9576131f8613514565b5b8060405250919050565b600067ffffffffffffffff82111561321e5761321d613514565b5b601f19601f8301169050602081019050919050565b6000819050602082019050919050565b6000819050602082019050919050565b60008190508160005260206000209050919050565b600081519050919050565b600081519050919050565b600081519050919050565b6000602082019050919050565b6000602082019050919050565b600082825260208201905092915050565b600082825260208201905092915050565b600082825260208201905092915050565b600081905092915050565b600082825260208201905092915050565b600082825260208201905092915050565b600061330e826133cb565b9150613319836133cb565b9250827fffffffffffffffffffffffffffffffffffffffffffffffffffffffffffffffff0382111561334e5761334d6134b6565b5b828201905092915050565b6000613364826133cb565b915061336f836133cb565b925082821015613382576133816134b6565b5b828203905092915050565b6000613398826133ab565b9050919050565b60008115159050919050565b600073ffffffffffffffffffffffffffffffffffffffff82169050919050565b6000819050919050565b60006133e0826133e7565b9050919050565b60006133f2826133ab565b9050919050565b82818337600083830152505050565b60005b8381101561342657808201518184015260208101905061340b565b83811115613435576000848401525b50505050565b6000600282049050600182168061345357607f821691505b60208210811415613467576134666134e5565b5b50919050565b6000613478826133cb565b91507fffffffffffffffffffffffffffffffffffffffffffffffffffffffffffffffff8214156134ab576134aa6134b6565b5b600182019050919050565b7f4e487b7100000000000000000000000000000000000000000000000000000000600052601160045260246000fd5b7f4e487b7100000000000000000000000000000000000000000000000000000000600052602260045260246000fd5b7f4e487b7100000000000000000000000000000000000000000000000000000000600052604160045260246000fd5b6000601f19601f8301169050919050565b61355d8161338d565b811461356857600080fd5b50565b6135748161339f565b811461357f57600080fd5b50565b61358b816133cb565b811461359657600080fd5b5056fea2646970667358221220f3c79d0d58b91c84986ce850aa060e59b3846a4e6dfd870240eeb5041733a1dd64736f6c63430008000033",
  "immutableReferences": {},
  "source": "// SPDX-License-Identifier: MIT\r\npragma solidity ^0.8.0;\r\n\r\nimport \"./FungibleToken.sol\";\r\nimport \"@openzeppelin/contracts/utils/math/SafeMath.sol\";\r\n\r\ncontract LoyaltyProgram {\r\n    using SafeMath for uint256;\r\n    FungibleToken public token;\r\n    struct LoyaltyPointEntry {\r\n        uint256 tokenId; // Token ID to uniquely identify entries\r\n        string orderId;\r\n        string orderName;\r\n        uint256 amount;\r\n        string action;\r\n        uint256 timestamp;\r\n        uint256 expireTimestamp;\r\n        uint256 deductedPoints;\r\n        uint256[] fromTokenIds; // Array of token IDs used for redemption\r\n        bool expired; // Flag indicating if the entry is expired\r\n    }\r\n\r\n    mapping(address => uint256) public totalPoints;\r\n    mapping(address => uint256) public tokenCounter;\r\n    mapping(address => mapping(uint256 => LoyaltyPointEntry))\r\n        public loyaltyPoints;\r\n\r\n    constructor(address _token) {\r\n        token = FungibleToken(_token);\r\n    }\r\n\r\n    event PointsEarned(\r\n        address indexed user,\r\n        uint256 tokenId,\r\n        string orderId,\r\n        string orderName,\r\n        uint256 amount,\r\n        string action,\r\n        uint256 timestamp,\r\n        uint256 expireTimestamp\r\n    );\r\n    event PointsRefund(\r\n        address indexed user,\r\n        uint256 tokenId,\r\n        string orderId,\r\n        string orderName,\r\n        uint256 amount,\r\n        string action,\r\n        uint256 timestamp,\r\n        uint256 expireTimestamp\r\n    );\r\n    event PointsExpired(\r\n        address indexed user,\r\n        uint256 tokenId,\r\n        string orderId,\r\n        uint256 amount,\r\n        string action,\r\n        uint256 timestamp,\r\n        uint256 expireTimestamp\r\n    );\r\n    event PointsRedeemed(\r\n        address indexed user,\r\n        uint256 tokenId,\r\n        string orderId,\r\n        string orderName,\r\n        uint256 amount,\r\n        string action,\r\n        uint256 timestamp,\r\n        uint256 expireTimestamp,\r\n        uint256 deductedPoints,\r\n        uint256[] fromTokenIds\r\n    );\r\n\r\n    function earnPoints(\r\n        uint256 amount,\r\n        string memory orderId,\r\n        string memory orderName\r\n    ) external {\r\n        require(amount > 0, \"Amount must be greater than 0\");\r\n        require(\r\n            token.transferFrom(msg.sender, address(this), amount),\r\n            \"Transfer failed\"\r\n        );\r\n\r\n        uint256 tokenId = tokenCounter[msg.sender];\r\n        uint256 expireTimestamp = block.timestamp + 365 days; // Set expiration time to 1 minute from now\r\n\r\n        uint256[] memory fromTokenIds;\r\n        fromTokenIds = _appendToArray(fromTokenIds, tokenId);\r\n        loyaltyPoints[msg.sender][tokenId] = LoyaltyPointEntry(\r\n            tokenId,\r\n            orderId,\r\n            orderName,\r\n            amount,\r\n            \"earn\",\r\n            block.timestamp,\r\n            expireTimestamp,\r\n            0,\r\n            fromTokenIds,\r\n            false\r\n        );\r\n        totalPoints[msg.sender] = totalPoints[msg.sender].add(amount);\r\n        tokenCounter[msg.sender]++;\r\n\r\n        emit PointsEarned(\r\n            msg.sender,\r\n            tokenId,\r\n            orderId,\r\n            orderName,\r\n            amount,\r\n            \"earn\",\r\n            block.timestamp,\r\n            expireTimestamp\r\n        );\r\n    }\r\n\r\n    // refund points in case of any failure\r\n    function refundPoints(\r\n        uint256 amount,\r\n        string memory orderId,\r\n        string memory orderName\r\n    ) external {\r\n        require(amount > 0, \"Amount must be greater than 0\");\r\n        require(\r\n            token.transferFrom(msg.sender, address(this), amount),\r\n            \"Transfer failed\"\r\n        );\r\n\r\n        uint256 tokenId = tokenCounter[msg.sender];\r\n        uint256 expireTimestamp = block.timestamp + 5 minutes; // Set expiration time to 1 minute from now\r\n\r\n        uint256[] memory fromTokenIds;\r\n        fromTokenIds = _appendToArray(fromTokenIds, tokenId);\r\n        loyaltyPoints[msg.sender][tokenId] = LoyaltyPointEntry(\r\n            tokenId,\r\n            orderId,\r\n            orderName,\r\n            amount,\r\n            \"refund\",\r\n            block.timestamp,\r\n            expireTimestamp,\r\n            0,\r\n            fromTokenIds,\r\n            false\r\n        );\r\n        totalPoints[msg.sender] = totalPoints[msg.sender].add(amount);\r\n        tokenCounter[msg.sender]++;\r\n\r\n        emit PointsRefund(\r\n            msg.sender,\r\n            tokenId,\r\n            orderId,\r\n            orderName,\r\n            amount,\r\n            \"refund\",\r\n            block.timestamp,\r\n            expireTimestamp\r\n        );\r\n    }\r\n\r\n    function redeemPoints(\r\n        uint256 amount,\r\n        string memory orderId,\r\n        string memory orderName\r\n    ) external {\r\n        require(amount > 0, \"Points must be greater than 0\");\r\n        require(totalPoints[msg.sender] >= amount, \"Insufficient points\");\r\n\r\n        uint256 tokenId = tokenCounter[msg.sender];\r\n        uint256 remainingRedeemAmount = amount;\r\n        uint256 deductedPoints = 0;\r\n        uint256[] memory fromTokenIds;\r\n\r\n        // Find the available \"earn\" entries with enough points and not expired\r\n        for (uint256 i = 0; i < tokenId; i++) {\r\n            if (\r\n                loyaltyPoints[msg.sender][i].amount > 0 &&\r\n                loyaltyPoints[msg.sender][i].expireTimestamp >=\r\n                block.timestamp &&\r\n                keccak256(bytes(loyaltyPoints[msg.sender][i].action)) ==\r\n                keccak256(\"earn\")\r\n            ) {\r\n                uint256 availablePoints = loyaltyPoints[msg.sender][i]\r\n                    .amount\r\n                    .sub(loyaltyPoints[msg.sender][i].deductedPoints);\r\n                uint256 redeemAmount = remainingRedeemAmount > availablePoints\r\n                    ? availablePoints\r\n                    : remainingRedeemAmount;\r\n                uint256 newDeductedPoints = loyaltyPoints[msg.sender][i]\r\n                    .deductedPoints\r\n                    .add(redeemAmount);\r\n                uint256 fromTokenId = loyaltyPoints[msg.sender][i].tokenId;\r\n\r\n                // Update the \"earn\" entry with deducted points\r\n                loyaltyPoints[msg.sender][i].deductedPoints = newDeductedPoints;\r\n\r\n                deductedPoints = deductedPoints.add(redeemAmount);\r\n                fromTokenIds = _appendToArray(fromTokenIds, fromTokenId);\r\n\r\n                remainingRedeemAmount = remainingRedeemAmount.sub(redeemAmount);\r\n\r\n                if (remainingRedeemAmount == 0) {\r\n                    break; // Exit the loop once fully redeemed\r\n                }\r\n            }\r\n        }\r\n\r\n        // Ensure that points are deducted before proceeding\r\n        require(deductedPoints > 0, \"No points available for redemption\");\r\n\r\n        // Update the totalPoints and transfer tokens\r\n        totalPoints[msg.sender] = totalPoints[msg.sender].sub(deductedPoints);\r\n        token.transfer(msg.sender, deductedPoints);\r\n\r\n        // Create a new entry for the redemption\r\n        uint256 newTokenId = tokenCounter[msg.sender];\r\n        loyaltyPoints[msg.sender][newTokenId] = LoyaltyPointEntry(\r\n            newTokenId,\r\n            orderId,\r\n            orderName,\r\n            deductedPoints,\r\n            \"redeem\",\r\n            block.timestamp,\r\n            block.timestamp,\r\n            deductedPoints,\r\n            fromTokenIds,\r\n            false\r\n        );\r\n        tokenCounter[msg.sender]++;\r\n\r\n        emit PointsRedeemed(\r\n            msg.sender,\r\n            newTokenId,\r\n            orderId,\r\n            orderName,\r\n            deductedPoints,\r\n            \"redeem\",\r\n            block.timestamp,\r\n            block.timestamp,\r\n            deductedPoints,\r\n            fromTokenIds\r\n        );\r\n    }\r\n\r\n    function expirePoints(uint256 tokenId, string memory orderId) external {\r\n        require(\r\n            loyaltyPoints[msg.sender][tokenId].amount > 0,\r\n            \"Invalid token ID\"\r\n        );\r\n\r\n        // Only allow expiring 'earn' points\r\n        require(\r\n            keccak256(bytes(loyaltyPoints[msg.sender][tokenId].action)) ==\r\n                keccak256(\"earn\"),\r\n            \"Only 'earn' points can be expired\"\r\n        );\r\n\r\n        // Skip if the points entry is already expired\r\n        if (loyaltyPoints[msg.sender][tokenId].expired) {\r\n            return;\r\n        }\r\n\r\n        // Skip if the entry is not yet expired based on the timestamp\r\n        if (\r\n            block.timestamp < loyaltyPoints[msg.sender][tokenId].expireTimestamp\r\n        ) {\r\n            return;\r\n        }\r\n\r\n        uint256 expiredAmount = loyaltyPoints[msg.sender][tokenId].amount.sub(\r\n            loyaltyPoints[msg.sender][tokenId].deductedPoints\r\n        );\r\n        require(expiredAmount > 0, \"No points to expire\");\r\n\r\n        // Set the entry to expired\r\n        loyaltyPoints[msg.sender][tokenId].expired = true;\r\n\r\n        // Deduct the remaining points from totalPoints\r\n        totalPoints[msg.sender] = totalPoints[msg.sender].sub(expiredAmount);\r\n        uint256[] memory fromTokenIds;\r\n        fromTokenIds = _appendToArray(fromTokenIds, tokenId);\r\n        // Create a new entry for the expired points\r\n        uint256 newTokenId = tokenCounter[msg.sender];\r\n        loyaltyPoints[msg.sender][newTokenId] = LoyaltyPointEntry(\r\n            newTokenId,\r\n            orderId,\r\n            \"Expired Coins\",\r\n            expiredAmount,\r\n            \"expire\",\r\n            block.timestamp,\r\n            block.timestamp,\r\n            0,\r\n            fromTokenIds,\r\n            true\r\n        );\r\n        tokenCounter[msg.sender]++;\r\n\r\n        emit PointsExpired(\r\n            msg.sender,\r\n            newTokenId,\r\n            orderId,\r\n            expiredAmount,\r\n            \"expire\",\r\n            block.timestamp,\r\n            block.timestamp\r\n        );\r\n    }\r\n\r\n    function getTotalEarnedPoints(\r\n        address user\r\n    ) external view returns (uint256) {\r\n        return totalPoints[user];\r\n    }\r\n\r\n    function getEarnedPointsWithTimestamps(\r\n        address user\r\n    ) external view returns (LoyaltyPointEntry[] memory) {\r\n        uint256 userTokenCounter = tokenCounter[user];\r\n        LoyaltyPointEntry[] memory earnedPoints = new LoyaltyPointEntry[](\r\n            userTokenCounter\r\n        );\r\n\r\n        for (uint256 i = 0; i < userTokenCounter; i++) {\r\n            earnedPoints[i] = loyaltyPoints[user][i];\r\n        }\r\n\r\n        return earnedPoints;\r\n    }\r\n\r\n    function _appendToArray(\r\n        uint256[] memory array,\r\n        uint256 element\r\n    ) private pure returns (uint256[] memory) {\r\n        uint256[] memory newArray = new uint256[](array.length + 1);\r\n        for (uint256 i = 0; i < array.length; i++) {\r\n            newArray[i] = array[i];\r\n        }\r\n        newArray[array.length] = element;\r\n        return newArray;\r\n    }\r\n}\r\n",
  "sourcePath": "C:\\Users\\SUCHETA PAL\\Desktop\\flipkart\\flipkart-project\\server\\web3\\contracts\\LoyaltyProgram.sol",
  "compiler": {
    "name": "solc",
    "version": "0.8.0+commit.c7dfd78e.Emscripten.clang"
  },
  "schemaVersion": "3.4.15",
  "updatedAt": "2023-08-20T20:06:27.824Z",
  "networkType": "ethereum",
  "devdoc": {
    "kind": "dev",
    "methods": {},
    "version": 1
  },
  "userdoc": {
    "kind": "user",
    "methods": {},
    "version": 1
  }
}