{
  "contractName": "LoyaltyProgram",
  "abi": [
    {
      "inputs": [
        {
          "internalType": "address",
          "name": "_token",
          "type": "address"
        }
      ],
      "stateMutability": "nonpayable",
      "type": "constructor"
    },
    {
      "anonymous": false,
      "inputs": [
        {
          "indexed": true,
          "internalType": "address",
          "name": "user",
          "type": "address"
        },
        {
          "indexed": false,
          "internalType": "uint256",
          "name": "tokenId",
          "type": "uint256"
        },
        {
          "indexed": false,
          "internalType": "uint256",
          "name": "amount",
          "type": "uint256"
        },
        {
          "indexed": false,
          "internalType": "string",
          "name": "action",
          "type": "string"
        },
        {
          "indexed": false,
          "internalType": "uint256",
          "name": "timestamp",
          "type": "uint256"
        },
        {
          "indexed": false,
          "internalType": "uint256",
          "name": "expireTimestamp",
          "type": "uint256"
        }
      ],
      "name": "PointsEarned",
      "type": "event"
    },
    {
      "anonymous": false,
      "inputs": [
        {
          "indexed": true,
          "internalType": "address",
          "name": "user",
          "type": "address"
        },
        {
          "indexed": false,
          "internalType": "uint256",
          "name": "tokenId",
          "type": "uint256"
        },
        {
          "indexed": false,
          "internalType": "uint256",
          "name": "amount",
          "type": "uint256"
        },
        {
          "indexed": false,
          "internalType": "string",
          "name": "action",
          "type": "string"
        },
        {
          "indexed": false,
          "internalType": "uint256",
          "name": "timestamp",
          "type": "uint256"
        },
        {
          "indexed": false,
          "internalType": "uint256",
          "name": "expireTimestamp",
          "type": "uint256"
        }
      ],
      "name": "PointsExpired",
      "type": "event"
    },
    {
      "anonymous": false,
      "inputs": [
        {
          "indexed": true,
          "internalType": "address",
          "name": "user",
          "type": "address"
        },
        {
          "indexed": false,
          "internalType": "uint256",
          "name": "tokenId",
          "type": "uint256"
        },
        {
          "indexed": false,
          "internalType": "uint256",
          "name": "amount",
          "type": "uint256"
        },
        {
          "indexed": false,
          "internalType": "string",
          "name": "action",
          "type": "string"
        },
        {
          "indexed": false,
          "internalType": "uint256",
          "name": "timestamp",
          "type": "uint256"
        },
        {
          "indexed": false,
          "internalType": "uint256",
          "name": "expireTimestamp",
          "type": "uint256"
        },
        {
          "indexed": false,
          "internalType": "uint256",
          "name": "deductedPoints",
          "type": "uint256"
        },
        {
          "indexed": false,
          "internalType": "uint256[]",
          "name": "fromTokenIds",
          "type": "uint256[]"
        }
      ],
      "name": "PointsRedeemed",
      "type": "event"
    },
    {
      "inputs": [
        {
          "internalType": "address",
          "name": "",
          "type": "address"
        },
        {
          "internalType": "uint256",
          "name": "",
          "type": "uint256"
        }
      ],
      "name": "loyaltyPoints",
      "outputs": [
        {
          "internalType": "uint256",
          "name": "tokenId",
          "type": "uint256"
        },
        {
          "internalType": "string",
          "name": "orderId",
          "type": "string"
        },
        {
          "internalType": "string",
          "name": "orderName",
          "type": "string"
        },
        {
          "internalType": "uint256",
          "name": "amount",
          "type": "uint256"
        },
        {
          "internalType": "string",
          "name": "action",
          "type": "string"
        },
        {
          "internalType": "uint256",
          "name": "timestamp",
          "type": "uint256"
        },
        {
          "internalType": "uint256",
          "name": "expireTimestamp",
          "type": "uint256"
        },
        {
          "internalType": "uint256",
          "name": "deductedPoints",
          "type": "uint256"
        },
        {
          "internalType": "bool",
          "name": "expired",
          "type": "bool"
        }
      ],
      "stateMutability": "view",
      "type": "function",
      "constant": true
    },
    {
      "inputs": [],
      "name": "token",
      "outputs": [
        {
          "internalType": "contract FungibleToken",
          "name": "",
          "type": "address"
        }
      ],
      "stateMutability": "view",
      "type": "function",
      "constant": true
    },
    {
      "inputs": [
        {
          "internalType": "address",
          "name": "",
          "type": "address"
        }
      ],
      "name": "tokenCounter",
      "outputs": [
        {
          "internalType": "uint256",
          "name": "",
          "type": "uint256"
        }
      ],
      "stateMutability": "view",
      "type": "function",
      "constant": true
    },
    {
      "inputs": [
        {
          "internalType": "address",
          "name": "",
          "type": "address"
        }
      ],
      "name": "totalPoints",
      "outputs": [
        {
          "internalType": "uint256",
          "name": "",
          "type": "uint256"
        }
      ],
      "stateMutability": "view",
      "type": "function",
      "constant": true
    },
    {
      "inputs": [
        {
          "internalType": "uint256",
          "name": "amount",
          "type": "uint256"
        },
        {
          "internalType": "string",
          "name": "orderId",
          "type": "string"
        },
        {
          "internalType": "string",
          "name": "orderName",
          "type": "string"
        }
      ],
      "name": "earnPoints",
      "outputs": [],
      "stateMutability": "nonpayable",
      "type": "function"
    },
    {
      "inputs": [
        {
          "internalType": "uint256",
          "name": "amount",
          "type": "uint256"
        },
        {
          "internalType": "string",
          "name": "orderId",
          "type": "string"
        },
        {
          "internalType": "string",
          "name": "orderName",
          "type": "string"
        }
      ],
      "name": "redeemPoints",
      "outputs": [],
      "stateMutability": "nonpayable",
      "type": "function"
    },
    {
      "inputs": [
        {
          "internalType": "uint256",
          "name": "tokenId",
          "type": "uint256"
        },
        {
          "internalType": "string",
          "name": "orderId",
          "type": "string"
        }
      ],
      "name": "expirePoints",
      "outputs": [],
      "stateMutability": "nonpayable",
      "type": "function"
    },
    {
      "inputs": [
        {
          "internalType": "address",
          "name": "user",
          "type": "address"
        }
      ],
      "name": "getTotalEarnedPoints",
      "outputs": [
        {
          "internalType": "uint256",
          "name": "",
          "type": "uint256"
        }
      ],
      "stateMutability": "view",
      "type": "function",
      "constant": true
    },
    {
      "inputs": [
        {
          "internalType": "address",
          "name": "user",
          "type": "address"
        }
      ],
      "name": "getEarnedPointsWithTimestamps",
      "outputs": [
        {
          "components": [
            {
              "internalType": "uint256",
              "name": "tokenId",
              "type": "uint256"
            },
            {
              "internalType": "string",
              "name": "orderId",
              "type": "string"
            },
            {
              "internalType": "string",
              "name": "orderName",
              "type": "string"
            },
            {
              "internalType": "uint256",
              "name": "amount",
              "type": "uint256"
            },
            {
              "internalType": "string",
              "name": "action",
              "type": "string"
            },
            {
              "internalType": "uint256",
              "name": "timestamp",
              "type": "uint256"
            },
            {
              "internalType": "uint256",
              "name": "expireTimestamp",
              "type": "uint256"
            },
            {
              "internalType": "uint256",
              "name": "deductedPoints",
              "type": "uint256"
            },
            {
              "internalType": "uint256[]",
              "name": "fromTokenIds",
              "type": "uint256[]"
            },
            {
              "internalType": "bool",
              "name": "expired",
              "type": "bool"
            }
          ],
          "internalType": "struct LoyaltyProgram.LoyaltyPointEntry[]",
          "name": "",
          "type": "tuple[]"
        }
      ],
      "stateMutability": "view",
      "type": "function",
      "constant": true
    }
  ],
  "bytecode": "0x60806040523480156200001157600080fd5b506040516200311538038062003115833981810160405281019062000037919062000095565b806000806101000a81548173ffffffffffffffffffffffffffffffffffffffff021916908373ffffffffffffffffffffffffffffffffffffffff160217905550506200010f565b6000815190506200008f81620000f5565b92915050565b600060208284031215620000a857600080fd5b6000620000b8848285016200007e565b91505092915050565b6000620000ce82620000d5565b9050919050565b600073ffffffffffffffffffffffffffffffffffffffff82169050919050565b6200010081620000c1565b81146200010c57600080fd5b50565b612ff6806200011f6000396000f3fe608060405234801561001057600080fd5b50600436106100935760003560e01c80635f48d567116100665780635f48d567146101445780638560a32914610174578063ac66b56f146101ac578063bc88b5dc146101c8578063fc0c546a146101e457610093565b80630fac91001461009857806334fb2fb5146100c8578063383073a0146100f85780635428abca14610114575b600080fd5b6100b260048036038101906100ad9190612059565b610202565b6040516100bf9190612a11565b60405180910390f35b6100e260048036038101906100dd9190612059565b61021a565b6040516100ef91906128d4565b60405180910390f35b610112600480360381019061010d919061213b565b610602565b005b61012e60048036038101906101299190612059565b610a77565b60405161013b9190612a11565b60405180910390f35b61015e60048036038101906101599190612059565b610ac0565b60405161016b9190612a11565b60405180910390f35b61018e60048036038101906101899190612082565b610ad8565b6040516101a399989796959493929190612a2c565b60405180910390f35b6101c660048036038101906101c1919061213b565b610cd8565b005b6101e260048036038101906101dd91906120e7565b6115a7565b005b6101ec611ca4565b6040516101f991906128f6565b60405180910390f35b60016020528060005260406000206000915090505481565b60606000600260008473ffffffffffffffffffffffffffffffffffffffff1673ffffffffffffffffffffffffffffffffffffffff16815260200190815260200160002054905060008167ffffffffffffffff8111156102a2577f4e487b7100000000000000000000000000000000000000000000000000000000600052604160045260246000fd5b6040519080825280602002602001820160405280156102db57816020015b6102c8611e6d565b8152602001906001900390816102c05790505b50905060005b828110156105f757600360008673ffffffffffffffffffffffffffffffffffffffff1673ffffffffffffffffffffffffffffffffffffffff1681526020019081526020016000206000828152602001908152602001600020604051806101400160405290816000820154815260200160018201805461035f90612e62565b80601f016020809104026020016040519081016040528092919081815260200182805461038b90612e62565b80156103d85780601f106103ad576101008083540402835291602001916103d8565b820191906000526020600020905b8154815290600101906020018083116103bb57829003601f168201915b505050505081526020016002820180546103f190612e62565b80601f016020809104026020016040519081016040528092919081815260200182805461041d90612e62565b801561046a5780601f1061043f5761010080835404028352916020019161046a565b820191906000526020600020905b81548152906001019060200180831161044d57829003601f168201915b505050505081526020016003820154815260200160048201805461048d90612e62565b80601f01602080910402602001604051908101604052809291908181526020018280546104b990612e62565b80156105065780601f106104db57610100808354040283529160200191610506565b820191906000526020600020905b8154815290600101906020018083116104e957829003601f168201915b505050505081526020016005820154815260200160068201548152602001600782015481526020016008820180548060200260200160405190810160405280929190818152602001828054801561057c57602002820191906000526020600020905b815481526020019060010190808311610568575b505050505081526020016009820160009054906101000a900460ff1615151515815250508282815181106105d9577f4e487b7100000000000000000000000000000000000000000000000000000000600052603260045260246000fd5b602002602001018190525080806105ef90612e94565b9150506102e1565b508092505050919050565b60008311610645576040517f08c379a000000000000000000000000000000000000000000000000000000000815260040161063c90612971565b60405180910390fd5b60008054906101000a900473ffffffffffffffffffffffffffffffffffffffff1673ffffffffffffffffffffffffffffffffffffffff166323b872dd3330866040518463ffffffff1660e01b81526004016106a293929190612874565b602060405180830381600087803b1580156106bc57600080fd5b505af11580156106d0573d6000803e3d6000fd5b505050506040513d601f19601f820116820180604052508101906106f491906120be565b610733576040517f08c379a000000000000000000000000000000000000000000000000000000000815260040161072a90612931565b60405180910390fd5b6000600260003373ffffffffffffffffffffffffffffffffffffffff1673ffffffffffffffffffffffffffffffffffffffff168152602001908152602001600020549050600061012c426107879190612d2a565b905060606107958184611cc8565b90506040518061014001604052808481526020018681526020018581526020018781526020016040518060400160405280600481526020017f6561726e0000000000000000000000000000000000000000000000000000000081525081526020014281526020018381526020016000815260200182815260200160001515815250600360003373ffffffffffffffffffffffffffffffffffffffff1673ffffffffffffffffffffffffffffffffffffffff168152602001908152602001600020600085815260200190815260200160002060008201518160000155602082015181600101908051906020019061088c929190611ec2565b5060408201518160020190805190602001906108a9929190611ec2565b506060820151816003015560808201518160040190805190602001906108d0929190611ec2565b5060a0820151816005015560c0820151816006015560e0820151816007015561010082015181600801908051906020019061090c929190611f48565b506101208201518160090160006101000a81548160ff02191690831515021790555090505061098386600160003373ffffffffffffffffffffffffffffffffffffffff1673ffffffffffffffffffffffffffffffffffffffff16815260200190815260200160002054611e4190919063ffffffff16565b600160003373ffffffffffffffffffffffffffffffffffffffff1673ffffffffffffffffffffffffffffffffffffffff16815260200190815260200160002081905550600260003373ffffffffffffffffffffffffffffffffffffffff1673ffffffffffffffffffffffffffffffffffffffff1681526020019081526020016000206000815480929190610a1690612e94565b91905055503373ffffffffffffffffffffffffffffffffffffffff167f75fc25da69e5f11424226264dd17f97749c7b4b466a62a066b3351de5708edf084884286604051610a679493929190612ba1565b60405180910390a2505050505050565b6000600160008373ffffffffffffffffffffffffffffffffffffffff1673ffffffffffffffffffffffffffffffffffffffff168152602001908152602001600020549050919050565b60026020528060005260406000206000915090505481565b600360205281600052604060002060205280600052604060002060009150915050806000015490806001018054610b0e90612e62565b80601f0160208091040260200160405190810160405280929190818152602001828054610b3a90612e62565b8015610b875780601f10610b5c57610100808354040283529160200191610b87565b820191906000526020600020905b815481529060010190602001808311610b6a57829003601f168201915b505050505090806002018054610b9c90612e62565b80601f0160208091040260200160405190810160405280929190818152602001828054610bc890612e62565b8015610c155780601f10610bea57610100808354040283529160200191610c15565b820191906000526020600020905b815481529060010190602001808311610bf857829003601f168201915b505050505090806003015490806004018054610c3090612e62565b80601f0160208091040260200160405190810160405280929190818152602001828054610c5c90612e62565b8015610ca95780601f10610c7e57610100808354040283529160200191610ca9565b820191906000526020600020905b815481529060010190602001808311610c8c57829003601f168201915b5050505050908060050154908060060154908060070154908060090160009054906101000a900460ff16905089565b60008311610d1b576040517f08c379a0000000000000000000000000000000000000000000000000000000008152600401610d12906129b1565b60405180910390fd5b82600160003373ffffffffffffffffffffffffffffffffffffffff1673ffffffffffffffffffffffffffffffffffffffff168152602001908152602001600020541015610d9d576040517f08c379a0000000000000000000000000000000000000000000000000000000008152600401610d94906129f1565b60405180910390fd5b6000600260003373ffffffffffffffffffffffffffffffffffffffff1673ffffffffffffffffffffffffffffffffffffffff16815260200190815260200160002054905060008490506000606060005b8481101561118c576000600360003373ffffffffffffffffffffffffffffffffffffffff1673ffffffffffffffffffffffffffffffffffffffff168152602001908152602001600020600083815260200190815260200160002060030154118015610eab575042600360003373ffffffffffffffffffffffffffffffffffffffff1673ffffffffffffffffffffffffffffffffffffffff16815260200190815260200160002060008381526020019081526020016000206006015410155b8015610f3d57507ff943a5309b9b51c0b25ae4b14fabba688e84a1bddc50bad9cac431110d945616600360003373ffffffffffffffffffffffffffffffffffffffff1673ffffffffffffffffffffffffffffffffffffffff1681526020019081526020016000206000838152602001908152602001600020600401604051610f33919061285d565b6040518091039020145b15611179576000610ffd600360003373ffffffffffffffffffffffffffffffffffffffff1673ffffffffffffffffffffffffffffffffffffffff168152602001908152602001600020600084815260200190815260200160002060070154600360003373ffffffffffffffffffffffffffffffffffffffff1673ffffffffffffffffffffffffffffffffffffffff168152602001908152602001600020600085815260200190815260200160002060030154611e5790919063ffffffff16565b9050600081861161100e5785611010565b815b9050600061107a82600360003373ffffffffffffffffffffffffffffffffffffffff1673ffffffffffffffffffffffffffffffffffffffff168152602001908152602001600020600087815260200190815260200160002060070154611e4190919063ffffffff16565b90506000600360003373ffffffffffffffffffffffffffffffffffffffff1673ffffffffffffffffffffffffffffffffffffffff168152602001908152602001600020600086815260200190815260200160002060000154905081600360003373ffffffffffffffffffffffffffffffffffffffff1673ffffffffffffffffffffffffffffffffffffffff16815260200190815260200160002060008781526020019081526020016000206007018190555061113f8388611e4190919063ffffffff16565b965061114b8682611cc8565b95506111608389611e5790919063ffffffff16565b97506000881415611174575050505061118c565b505050505b808061118490612e94565b915050610ded565b50600082116111d0576040517f08c379a00000000000000000000000000000000000000000000000000000000081526004016111c790612951565b60405180910390fd5b61122282600160003373ffffffffffffffffffffffffffffffffffffffff1673ffffffffffffffffffffffffffffffffffffffff16815260200190815260200160002054611e5790919063ffffffff16565b600160003373ffffffffffffffffffffffffffffffffffffffff1673ffffffffffffffffffffffffffffffffffffffff1681526020019081526020016000208190555060008054906101000a900473ffffffffffffffffffffffffffffffffffffffff1673ffffffffffffffffffffffffffffffffffffffff1663a9059cbb33846040518363ffffffff1660e01b81526004016112c09291906128ab565b602060405180830381600087803b1580156112da57600080fd5b505af11580156112ee573d6000803e3d6000fd5b505050506040513d601f19601f8201168201806040525081019061131291906120be565b506000600260003373ffffffffffffffffffffffffffffffffffffffff1673ffffffffffffffffffffffffffffffffffffffff1681526020019081526020016000205490506040518061014001604052808281526020018881526020018781526020018481526020016040518060400160405280600681526020017f72656465656d0000000000000000000000000000000000000000000000000000815250815260200142815260200142815260200184815260200183815260200160001515815250600360003373ffffffffffffffffffffffffffffffffffffffff1673ffffffffffffffffffffffffffffffffffffffff168152602001908152602001600020600083815260200190815260200160002060008201518160000155602082015181600101908051906020019061144b929190611ec2565b506040820151816002019080519060200190611468929190611ec2565b5060608201518160030155608082015181600401908051906020019061148f929190611ec2565b5060a0820151816005015560c0820151816006015560e082015181600701556101008201518160080190805190602001906114cb929190611f48565b506101208201518160090160006101000a81548160ff021916908315150217905550905050600260003373ffffffffffffffffffffffffffffffffffffffff1673ffffffffffffffffffffffffffffffffffffffff168152602001908152602001600020600081548092919061154090612e94565b91905055503373ffffffffffffffffffffffffffffffffffffffff167f51dc974308c627806f3e031b033f99d21c9af6d16681b5526f7c1dc42bd9b58f82854242888860405161159596959493929190612ace565b60405180910390a25050505050505050565b6000600360003373ffffffffffffffffffffffffffffffffffffffff1673ffffffffffffffffffffffffffffffffffffffff1681526020019081526020016000206000848152602001908152602001600020600301541161163d576040517f08c379a0000000000000000000000000000000000000000000000000000000008152600401611634906129d1565b60405180910390fd5b7ff943a5309b9b51c0b25ae4b14fabba688e84a1bddc50bad9cac431110d945616600360003373ffffffffffffffffffffffffffffffffffffffff1673ffffffffffffffffffffffffffffffffffffffff16815260200190815260200160002060008481526020019081526020016000206004016040516116be919061285d565b604051809103902014611706576040517f08c379a00000000000000000000000000000000000000000000000000000000081526004016116fd90612991565b60405180910390fd5b600360003373ffffffffffffffffffffffffffffffffffffffff1673ffffffffffffffffffffffffffffffffffffffff168152602001908152602001600020600083815260200190815260200160002060090160009054906101000a900460ff161561177157611ca0565b600360003373ffffffffffffffffffffffffffffffffffffffff1673ffffffffffffffffffffffffffffffffffffffff1681526020019081526020016000206000838152602001908152602001600020600601544210156117d157611ca0565b600061188c600360003373ffffffffffffffffffffffffffffffffffffffff1673ffffffffffffffffffffffffffffffffffffffff168152602001908152602001600020600085815260200190815260200160002060070154600360003373ffffffffffffffffffffffffffffffffffffffff1673ffffffffffffffffffffffffffffffffffffffff168152602001908152602001600020600086815260200190815260200160002060030154611e5790919063ffffffff16565b9050600081116118d1576040517f08c379a00000000000000000000000000000000000000000000000000000000081526004016118c890612911565b60405180910390fd5b6001600360003373ffffffffffffffffffffffffffffffffffffffff1673ffffffffffffffffffffffffffffffffffffffff168152602001908152602001600020600085815260200190815260200160002060090160006101000a81548160ff02191690831515021790555061198f81600160003373ffffffffffffffffffffffffffffffffffffffff1673ffffffffffffffffffffffffffffffffffffffff16815260200190815260200160002054611e5790919063ffffffff16565b600160003373ffffffffffffffffffffffffffffffffffffffff1673ffffffffffffffffffffffffffffffffffffffff1681526020019081526020016000208190555060606119de8185611cc8565b90506000600260003373ffffffffffffffffffffffffffffffffffffffff1673ffffffffffffffffffffffffffffffffffffffff1681526020019081526020016000205490506040518061014001604052808281526020018581526020016040518060400160405280600d81526020017f4578706972656420436f696e730000000000000000000000000000000000000081525081526020018481526020016040518060400160405280600681526020017f657870697265000000000000000000000000000000000000000000000000000081525081526020014281526020014281526020016000815260200183815260200160011515815250600360003373ffffffffffffffffffffffffffffffffffffffff1673ffffffffffffffffffffffffffffffffffffffff1681526020019081526020016000206000838152602001908152602001600020600082015181600001556020820151816001019080519060200190611b4e929190611ec2565b506040820151816002019080519060200190611b6b929190611ec2565b50606082015181600301556080820151816004019080519060200190611b92929190611ec2565b5060a0820151816005015560c0820151816006015560e08201518160070155610100820151816008019080519060200190611bce929190611f48565b506101208201518160090160006101000a81548160ff021916908315150217905550905050600260003373ffffffffffffffffffffffffffffffffffffffff1673ffffffffffffffffffffffffffffffffffffffff1681526020019081526020016000206000815480929190611c4390612e94565b91905055503373ffffffffffffffffffffffffffffffffffffffff167fc85ed27dca6d686845c49d6c26c5f1f7139a9a61d48870d8d8c1ee7cddab2d9082854242604051611c949493929190612b49565b60405180910390a25050505b5050565b60008054906101000a900473ffffffffffffffffffffffffffffffffffffffff1681565b6060600060018451611cda9190612d2a565b67ffffffffffffffff811115611d19577f4e487b7100000000000000000000000000000000000000000000000000000000600052604160045260246000fd5b604051908082528060200260200182016040528015611d475781602001602082028036833780820191505090505b50905060005b8451811015611def57848181518110611d8f577f4e487b7100000000000000000000000000000000000000000000000000000000600052603260045260246000fd5b6020026020010151828281518110611dd0577f4e487b7100000000000000000000000000000000000000000000000000000000600052603260045260246000fd5b6020026020010181815250508080611de790612e94565b915050611d4d565b508281855181518110611e2b577f4e487b7100000000000000000000000000000000000000000000000000000000600052603260045260246000fd5b6020026020010181815250508091505092915050565b60008183611e4f9190612d2a565b905092915050565b60008183611e659190612d80565b905092915050565b6040518061014001604052806000815260200160608152602001606081526020016000815260200160608152602001600081526020016000815260200160008152602001606081526020016000151581525090565b828054611ece90612e62565b90600052602060002090601f016020900481019282611ef05760008555611f37565b82601f10611f0957805160ff1916838001178555611f37565b82800160010185558215611f37579182015b82811115611f36578251825591602001919060010190611f1b565b5b509050611f449190611f95565b5090565b828054828255906000526020600020908101928215611f84579160200282015b82811115611f83578251825591602001919060010190611f68565b5b509050611f919190611f95565b5090565b5b80821115611fae576000816000905550600101611f96565b5090565b6000611fc5611fc084612c2a565b612bf9565b905082815260208101848484011115611fdd57600080fd5b611fe8848285612e20565b509392505050565b600081359050611fff81612f7b565b92915050565b60008151905061201481612f92565b92915050565b600082601f83011261202b57600080fd5b813561203b848260208601611fb2565b91505092915050565b60008135905061205381612fa9565b92915050565b60006020828403121561206b57600080fd5b600061207984828501611ff0565b91505092915050565b6000806040838503121561209557600080fd5b60006120a385828601611ff0565b92505060206120b485828601612044565b9150509250929050565b6000602082840312156120d057600080fd5b60006120de84828501612005565b91505092915050565b600080604083850312156120fa57600080fd5b600061210885828601612044565b925050602083013567ffffffffffffffff81111561212557600080fd5b6121318582860161201a565b9150509250929050565b60008060006060848603121561215057600080fd5b600061215e86828701612044565b935050602084013567ffffffffffffffff81111561217b57600080fd5b6121878682870161201a565b925050604084013567ffffffffffffffff8111156121a457600080fd5b6121b08682870161201a565b9150509250925092565b60006121c68383612750565b905092915050565b60006121da838361283f565b60208301905092915050565b6121ef81612db4565b82525050565b600061220082612c8f565b61220a8185612cca565b93508360208202850161221c85612c5a565b8060005b85811015612258578484038952815161223985826121ba565b945061224483612cb0565b925060208a01995050600181019050612220565b50829750879550505050505092915050565b600061227582612c9a565b61227f8185612cdb565b935061228a83612c6a565b8060005b838110156122bb5781516122a288826121ce565b97506122ad83612cbd565b92505060018101905061228e565b5085935050505092915050565b60006122d382612c9a565b6122dd8185612cec565b93506122e883612c6a565b8060005b8381101561231957815161230088826121ce565b975061230b83612cbd565b9250506001810190506122ec565b5085935050505092915050565b61232f81612dc6565b82525050565b61233e81612dc6565b82525050565b6000815461235181612e62565b61235b8186612cfd565b945060018216600081146123765760018114612387576123ba565b60ff198316865281860193506123ba565b61239085612c7a565b60005b838110156123b257815481890152600182019150602081019050612393565b838801955050505b50505092915050565b6123cc81612dfc565b82525050565b60006123dd82612ca5565b6123e78185612d08565b93506123f7818560208601612e2f565b61240081612f6a565b840191505092915050565b600061241682612ca5565b6124208185612d19565b9350612430818560208601612e2f565b61243981612f6a565b840191505092915050565b6000612451601383612d19565b91507f4e6f20706f696e747320746f20657870697265000000000000000000000000006000830152602082019050919050565b6000612491600f83612d19565b91507f5472616e73666572206661696c656400000000000000000000000000000000006000830152602082019050919050565b60006124d1600683612d19565b91507f72656465656d00000000000000000000000000000000000000000000000000006000830152602082019050919050565b6000612511602283612d19565b91507f4e6f20706f696e747320617661696c61626c6520666f7220726564656d70746960008301527f6f6e0000000000000000000000000000000000000000000000000000000000006020830152604082019050919050565b6000612577601d83612d19565b91507f416d6f756e74206d7573742062652067726561746572207468616e20300000006000830152602082019050919050565b60006125b7602183612d19565b91507f4f6e6c7920276561726e2720706f696e74732063616e2062652065787069726560008301527f64000000000000000000000000000000000000000000000000000000000000006020830152604082019050919050565b600061261d601d83612d19565b91507f506f696e7473206d7573742062652067726561746572207468616e20300000006000830152602082019050919050565b600061265d600683612d19565b91507f65787069726500000000000000000000000000000000000000000000000000006000830152602082019050919050565b600061269d601083612d19565b91507f496e76616c696420746f6b656e204944000000000000000000000000000000006000830152602082019050919050565b60006126dd601383612d19565b91507f496e73756666696369656e7420706f696e7473000000000000000000000000006000830152602082019050919050565b600061271d600483612d19565b91507f6561726e000000000000000000000000000000000000000000000000000000006000830152602082019050919050565b600061014083016000830151612769600086018261283f565b506020830151848203602086015261278182826123d2565b9150506040830151848203604086015261279b82826123d2565b91505060608301516127b0606086018261283f565b50608083015184820360808601526127c882826123d2565b91505060a08301516127dd60a086018261283f565b5060c08301516127f060c086018261283f565b5060e083015161280360e086018261283f565b5061010083015184820361010086015261281d828261226a565b915050610120830151612834610120860182612326565b508091505092915050565b61284881612df2565b82525050565b61285781612df2565b82525050565b60006128698284612344565b915081905092915050565b600060608201905061288960008301866121e6565b61289660208301856121e6565b6128a3604083018461284e565b949350505050565b60006040820190506128c060008301856121e6565b6128cd602083018461284e565b9392505050565b600060208201905081810360008301526128ee81846121f5565b905092915050565b600060208201905061290b60008301846123c3565b92915050565b6000602082019050818103600083015261292a81612444565b9050919050565b6000602082019050818103600083015261294a81612484565b9050919050565b6000602082019050818103600083015261296a81612504565b9050919050565b6000602082019050818103600083015261298a8161256a565b9050919050565b600060208201905081810360008301526129aa816125aa565b9050919050565b600060208201905081810360008301526129ca81612610565b9050919050565b600060208201905081810360008301526129ea81612690565b9050919050565b60006020820190508181036000830152612a0a816126d0565b9050919050565b6000602082019050612a26600083018461284e565b92915050565b600061012082019050612a42600083018c61284e565b8181036020830152612a54818b61240b565b90508181036040830152612a68818a61240b565b9050612a77606083018961284e565b8181036080830152612a89818861240b565b9050612a9860a083018761284e565b612aa560c083018661284e565b612ab260e083018561284e565b612ac0610100830184612335565b9a9950505050505050505050565b600060e082019050612ae3600083018961284e565b612af0602083018861284e565b8181036040830152612b01816124c4565b9050612b10606083018761284e565b612b1d608083018661284e565b612b2a60a083018561284e565b81810360c0830152612b3c81846122c8565b9050979650505050505050565b600060a082019050612b5e600083018761284e565b612b6b602083018661284e565b8181036040830152612b7c81612650565b9050612b8b606083018561284e565b612b98608083018461284e565b95945050505050565b600060a082019050612bb6600083018761284e565b612bc3602083018661284e565b8181036040830152612bd481612710565b9050612be3606083018561284e565b612bf0608083018461284e565b95945050505050565b6000604051905081810181811067ffffffffffffffff82111715612c2057612c1f612f3b565b5b8060405250919050565b600067ffffffffffffffff821115612c4557612c44612f3b565b5b601f19601f8301169050602081019050919050565b6000819050602082019050919050565b6000819050602082019050919050565b60008190508160005260206000209050919050565b600081519050919050565b600081519050919050565b600081519050919050565b6000602082019050919050565b6000602082019050919050565b600082825260208201905092915050565b600082825260208201905092915050565b600082825260208201905092915050565b600081905092915050565b600082825260208201905092915050565b600082825260208201905092915050565b6000612d3582612df2565b9150612d4083612df2565b9250827fffffffffffffffffffffffffffffffffffffffffffffffffffffffffffffffff03821115612d7557612d74612edd565b5b828201905092915050565b6000612d8b82612df2565b9150612d9683612df2565b925082821015612da957612da8612edd565b5b828203905092915050565b6000612dbf82612dd2565b9050919050565b60008115159050919050565b600073ffffffffffffffffffffffffffffffffffffffff82169050919050565b6000819050919050565b6000612e0782612e0e565b9050919050565b6000612e1982612dd2565b9050919050565b82818337600083830152505050565b60005b83811015612e4d578082015181840152602081019050612e32565b83811115612e5c576000848401525b50505050565b60006002820490506001821680612e7a57607f821691505b60208210811415612e8e57612e8d612f0c565b5b50919050565b6000612e9f82612df2565b91507fffffffffffffffffffffffffffffffffffffffffffffffffffffffffffffffff821415612ed257612ed1612edd565b5b600182019050919050565b7f4e487b7100000000000000000000000000000000000000000000000000000000600052601160045260246000fd5b7f4e487b7100000000000000000000000000000000000000000000000000000000600052602260045260246000fd5b7f4e487b7100000000000000000000000000000000000000000000000000000000600052604160045260246000fd5b6000601f19601f8301169050919050565b612f8481612db4565b8114612f8f57600080fd5b50565b612f9b81612dc6565b8114612fa657600080fd5b50565b612fb281612df2565b8114612fbd57600080fd5b5056fea2646970667358221220d143a2090b4206a8033563edbf37191075566066dcef865daa4d280799bc973864736f6c63430008000033",
  "immutableReferences": {},
  "source": "// SPDX-License-Identifier: MIT\npragma solidity ^0.8.0;\n\nimport \"./FungibleToken.sol\";\nimport \"@openzeppelin/contracts/utils/math/SafeMath.sol\";\n\ncontract LoyaltyProgram {\n    using SafeMath for uint256;\n    FungibleToken public token;\n    struct LoyaltyPointEntry {\n        uint256 tokenId; // Token ID to uniquely identify entries\n        string orderId;\n        string orderName;\n        uint256 amount;\n        string action;\n        uint256 timestamp;\n        uint256 expireTimestamp;\n        uint256 deductedPoints;\n        uint256[] fromTokenIds; // Array of token IDs used for redemption\n        bool expired; // Flag indicating if the entry is expired\n    }\n\n    mapping(address => uint256) public totalPoints;\n    mapping(address => uint256) public tokenCounter;\n    mapping(address => mapping(uint256 => LoyaltyPointEntry))\n        public loyaltyPoints;\n\n    constructor(address _token) {\n        token = FungibleToken(_token);\n    }\n\n    event PointsEarned(\n        address indexed user,\n        uint256 tokenId,\n        uint256 amount,\n        string action,\n        uint256 timestamp,\n        uint256 expireTimestamp\n    );\n    event PointsExpired(\n        address indexed user,\n        uint256 tokenId,\n        uint256 amount,\n        string action,\n        uint256 timestamp,\n        uint256 expireTimestamp\n    );\n    event PointsRedeemed(\n        address indexed user,\n        uint256 tokenId,\n        uint256 amount,\n        string action,\n        uint256 timestamp,\n        uint256 expireTimestamp,\n        uint256 deductedPoints,\n        uint256[] fromTokenIds\n    );\n\n    function earnPoints(\n        uint256 amount,\n        string memory orderId,\n        string memory orderName\n    ) external {\n        require(amount > 0, \"Amount must be greater than 0\");\n        require(\n            token.transferFrom(msg.sender, address(this), amount),\n            \"Transfer failed\"\n        );\n\n        uint256 tokenId = tokenCounter[msg.sender];\n        uint256 expireTimestamp = block.timestamp + 5 minutes; // Set expiration time to 1 minute from now\n\n        uint256[] memory fromTokenIds;\n        fromTokenIds = _appendToArray(fromTokenIds, tokenId);\n        loyaltyPoints[msg.sender][tokenId] = LoyaltyPointEntry(\n            tokenId,\n            orderId,\n            orderName,\n            amount,\n            \"earn\",\n            block.timestamp,\n            expireTimestamp,\n            0,\n            fromTokenIds,\n            false\n        );\n        totalPoints[msg.sender] = totalPoints[msg.sender].add(amount);\n        tokenCounter[msg.sender]++;\n\n        emit PointsEarned(\n            msg.sender,\n            tokenId,\n            amount,\n            \"earn\",\n            block.timestamp,\n            expireTimestamp\n        );\n    }\n\n    function redeemPoints(\n        uint256 amount,\n        string memory orderId,\n        string memory orderName\n    ) external {\n        require(amount > 0, \"Points must be greater than 0\");\n        require(totalPoints[msg.sender] >= amount, \"Insufficient points\");\n\n        uint256 tokenId = tokenCounter[msg.sender];\n        uint256 remainingRedeemAmount = amount;\n        uint256 deductedPoints = 0;\n        uint256[] memory fromTokenIds;\n\n        // Find the available \"earn\" entries with enough points and not expired\n        for (uint256 i = 0; i < tokenId; i++) {\n            if (\n                loyaltyPoints[msg.sender][i].amount > 0 &&\n                loyaltyPoints[msg.sender][i].expireTimestamp >=\n                block.timestamp &&\n                keccak256(bytes(loyaltyPoints[msg.sender][i].action)) ==\n                keccak256(\"earn\")\n            ) {\n                uint256 availablePoints = loyaltyPoints[msg.sender][i]\n                    .amount\n                    .sub(loyaltyPoints[msg.sender][i].deductedPoints);\n                uint256 redeemAmount = remainingRedeemAmount > availablePoints\n                    ? availablePoints\n                    : remainingRedeemAmount;\n                uint256 newDeductedPoints = loyaltyPoints[msg.sender][i]\n                    .deductedPoints\n                    .add(redeemAmount);\n                uint256 fromTokenId = loyaltyPoints[msg.sender][i].tokenId;\n\n                // Update the \"earn\" entry with deducted points\n                loyaltyPoints[msg.sender][i].deductedPoints = newDeductedPoints;\n\n                deductedPoints = deductedPoints.add(redeemAmount);\n                fromTokenIds = _appendToArray(fromTokenIds, fromTokenId);\n\n                remainingRedeemAmount = remainingRedeemAmount.sub(redeemAmount);\n\n                if (remainingRedeemAmount == 0) {\n                    break; // Exit the loop once fully redeemed\n                }\n            }\n        }\n\n        // Ensure that points are deducted before proceeding\n        require(deductedPoints > 0, \"No points available for redemption\");\n\n        // Update the totalPoints and transfer tokens\n        totalPoints[msg.sender] = totalPoints[msg.sender].sub(deductedPoints);\n        token.transfer(msg.sender, deductedPoints);\n\n        // Create a new entry for the redemption\n        uint256 newTokenId = tokenCounter[msg.sender];\n        loyaltyPoints[msg.sender][newTokenId] = LoyaltyPointEntry(\n            newTokenId,\n            orderId,\n            orderName,\n            deductedPoints,\n            \"redeem\",\n            block.timestamp,\n            block.timestamp,\n            deductedPoints,\n            fromTokenIds,\n            false\n        );\n        tokenCounter[msg.sender]++;\n\n        emit PointsRedeemed(\n            msg.sender,\n            newTokenId,\n            deductedPoints,\n            \"redeem\",\n            block.timestamp,\n            block.timestamp,\n            deductedPoints,\n            fromTokenIds\n        );\n    }\n\n    function expirePoints(uint256 tokenId, string memory orderId) external {\n        require(\n            loyaltyPoints[msg.sender][tokenId].amount > 0,\n            \"Invalid token ID\"\n        );\n\n        // Only allow expiring 'earn' points\n        require(\n            keccak256(bytes(loyaltyPoints[msg.sender][tokenId].action)) ==\n                keccak256(\"earn\"),\n            \"Only 'earn' points can be expired\"\n        );\n\n        // Skip if the points entry is already expired\n        if (loyaltyPoints[msg.sender][tokenId].expired) {\n            return;\n        }\n\n        // Skip if the entry is not yet expired based on the timestamp\n        if (\n            block.timestamp < loyaltyPoints[msg.sender][tokenId].expireTimestamp\n        ) {\n            return;\n        }\n\n        uint256 expiredAmount = loyaltyPoints[msg.sender][tokenId].amount.sub(\n            loyaltyPoints[msg.sender][tokenId].deductedPoints\n        );\n        require(expiredAmount > 0, \"No points to expire\");\n\n        // Set the entry to expired\n        loyaltyPoints[msg.sender][tokenId].expired = true;\n\n        // Deduct the remaining points from totalPoints\n        totalPoints[msg.sender] = totalPoints[msg.sender].sub(expiredAmount);\n        uint256[] memory fromTokenIds;\n        fromTokenIds = _appendToArray(fromTokenIds, tokenId);\n        // Create a new entry for the expired points\n        uint256 newTokenId = tokenCounter[msg.sender];\n        loyaltyPoints[msg.sender][newTokenId] = LoyaltyPointEntry(\n            newTokenId,\n            orderId,\n            \"Expired Coins\",\n            expiredAmount,\n            \"expire\",\n            block.timestamp,\n            block.timestamp,\n            0,\n            fromTokenIds,\n            true\n        );\n        tokenCounter[msg.sender]++;\n\n        emit PointsExpired(\n            msg.sender,\n            newTokenId,\n            expiredAmount,\n            \"expire\",\n            block.timestamp,\n            block.timestamp\n        );\n    }\n\n    function getTotalEarnedPoints(\n        address user\n    ) external view returns (uint256) {\n        return totalPoints[user];\n    }\n\n    function getEarnedPointsWithTimestamps(\n        address user\n    ) external view returns (LoyaltyPointEntry[] memory) {\n        uint256 userTokenCounter = tokenCounter[user];\n        LoyaltyPointEntry[] memory earnedPoints = new LoyaltyPointEntry[](\n            userTokenCounter\n        );\n\n        for (uint256 i = 0; i < userTokenCounter; i++) {\n            earnedPoints[i] = loyaltyPoints[user][i];\n        }\n\n        return earnedPoints;\n    }\n\n    function _appendToArray(\n        uint256[] memory array,\n        uint256 element\n    ) private pure returns (uint256[] memory) {\n        uint256[] memory newArray = new uint256[](array.length + 1);\n        for (uint256 i = 0; i < array.length; i++) {\n            newArray[i] = array[i];\n        }\n        newArray[array.length] = element;\n        return newArray;\n    }\n}\n",
  "sourcePath": "/Volumes/WorkShop/BLOCKCHAIN/(modified)loyalty-points-using-token copy/contracts/LoyaltyProgram.sol",
  "compiler": {
    "name": "solc",
    "version": "0.8.0+commit.c7dfd78e.Emscripten.clang"
  },
  "schemaVersion": "3.4.15",
  "updatedAt": "2023-08-20T01:22:22.724Z",
  "networkType": "ethereum",
  "devdoc": {
    "kind": "dev",
    "methods": {},
    "version": 1
  },
  "userdoc": {
    "kind": "user",
    "methods": {},
    "version": 1
  }
}