{
  "contractName": "LoyaltyProgram",
  "abi": [
    {
      "inputs": [
        {
          "internalType": "address",
          "name": "_token",
          "type": "address"
        }
      ],
      "stateMutability": "nonpayable",
      "type": "constructor"
    },
    {
      "anonymous": false,
      "inputs": [
        {
          "indexed": true,
          "internalType": "address",
          "name": "user",
          "type": "address"
        },
        {
          "indexed": false,
          "internalType": "uint256",
          "name": "tokenId",
          "type": "uint256"
        },
        {
          "indexed": false,
          "internalType": "uint256",
          "name": "amount",
          "type": "uint256"
        },
        {
          "indexed": false,
          "internalType": "string",
          "name": "action",
          "type": "string"
        },
        {
          "indexed": false,
          "internalType": "uint256",
          "name": "timestamp",
          "type": "uint256"
        },
        {
          "indexed": false,
          "internalType": "uint256",
          "name": "expireTimestamp",
          "type": "uint256"
        }
      ],
      "name": "PointsEarned",
      "type": "event"
    },
    {
      "anonymous": false,
      "inputs": [
        {
          "indexed": true,
          "internalType": "address",
          "name": "user",
          "type": "address"
        },
        {
          "indexed": false,
          "internalType": "uint256",
          "name": "tokenId",
          "type": "uint256"
        },
        {
          "indexed": false,
          "internalType": "uint256",
          "name": "amount",
          "type": "uint256"
        },
        {
          "indexed": false,
          "internalType": "string",
          "name": "action",
          "type": "string"
        },
        {
          "indexed": false,
          "internalType": "uint256",
          "name": "timestamp",
          "type": "uint256"
        },
        {
          "indexed": false,
          "internalType": "uint256",
          "name": "expireTimestamp",
          "type": "uint256"
        }
      ],
      "name": "PointsExpired",
      "type": "event"
    },
    {
      "anonymous": false,
      "inputs": [
        {
          "indexed": true,
          "internalType": "address",
          "name": "user",
          "type": "address"
        },
        {
          "indexed": false,
          "internalType": "uint256",
          "name": "tokenId",
          "type": "uint256"
        },
        {
          "indexed": false,
          "internalType": "uint256",
          "name": "amount",
          "type": "uint256"
        },
        {
          "indexed": false,
          "internalType": "string",
          "name": "action",
          "type": "string"
        },
        {
          "indexed": false,
          "internalType": "uint256",
          "name": "timestamp",
          "type": "uint256"
        },
        {
          "indexed": false,
          "internalType": "uint256",
          "name": "expireTimestamp",
          "type": "uint256"
        },
        {
          "indexed": false,
          "internalType": "uint256",
          "name": "deductedPoints",
          "type": "uint256"
        },
        {
          "indexed": false,
          "internalType": "uint256[]",
          "name": "fromTokenIds",
          "type": "uint256[]"
        }
      ],
      "name": "PointsRedeemed",
      "type": "event"
    },
    {
      "inputs": [
        {
          "internalType": "address",
          "name": "",
          "type": "address"
        },
        {
          "internalType": "uint256",
          "name": "",
          "type": "uint256"
        }
      ],
      "name": "loyaltyPoints",
      "outputs": [
        {
          "internalType": "uint256",
          "name": "tokenId",
          "type": "uint256"
        },
        {
          "internalType": "uint256",
          "name": "amount",
          "type": "uint256"
        },
        {
          "internalType": "string",
          "name": "action",
          "type": "string"
        },
        {
          "internalType": "uint256",
          "name": "timestamp",
          "type": "uint256"
        },
        {
          "internalType": "uint256",
          "name": "expireTimestamp",
          "type": "uint256"
        },
        {
          "internalType": "uint256",
          "name": "deductedPoints",
          "type": "uint256"
        },
        {
          "internalType": "bool",
          "name": "expired",
          "type": "bool"
        }
      ],
      "stateMutability": "view",
      "type": "function",
      "constant": true
    },
    {
      "inputs": [],
      "name": "token",
      "outputs": [
        {
          "internalType": "contract FungibleToken",
          "name": "",
          "type": "address"
        }
      ],
      "stateMutability": "view",
      "type": "function",
      "constant": true
    },
    {
      "inputs": [
        {
          "internalType": "address",
          "name": "",
          "type": "address"
        }
      ],
      "name": "tokenCounter",
      "outputs": [
        {
          "internalType": "uint256",
          "name": "",
          "type": "uint256"
        }
      ],
      "stateMutability": "view",
      "type": "function",
      "constant": true
    },
    {
      "inputs": [
        {
          "internalType": "address",
          "name": "",
          "type": "address"
        }
      ],
      "name": "totalPoints",
      "outputs": [
        {
          "internalType": "uint256",
          "name": "",
          "type": "uint256"
        }
      ],
      "stateMutability": "view",
      "type": "function",
      "constant": true
    },
    {
      "inputs": [
        {
          "internalType": "uint256",
          "name": "amount",
          "type": "uint256"
        }
      ],
      "name": "earnPoints",
      "outputs": [],
      "stateMutability": "nonpayable",
      "type": "function"
    },
    {
      "inputs": [
        {
          "internalType": "uint256",
          "name": "amount",
          "type": "uint256"
        }
      ],
      "name": "redeemPoints",
      "outputs": [],
      "stateMutability": "nonpayable",
      "type": "function"
    },
    {
      "inputs": [
        {
          "internalType": "uint256",
          "name": "tokenId",
          "type": "uint256"
        }
      ],
      "name": "expirePoints",
      "outputs": [],
      "stateMutability": "nonpayable",
      "type": "function"
    },
    {
      "inputs": [
        {
          "internalType": "address",
          "name": "user",
          "type": "address"
        }
      ],
      "name": "getTotalEarnedPoints",
      "outputs": [
        {
          "internalType": "uint256",
          "name": "",
          "type": "uint256"
        }
      ],
      "stateMutability": "view",
      "type": "function",
      "constant": true
    },
    {
      "inputs": [
        {
          "internalType": "address",
          "name": "user",
          "type": "address"
        }
      ],
      "name": "getEarnedPointsWithTimestamps",
      "outputs": [
        {
          "components": [
            {
              "internalType": "uint256",
              "name": "tokenId",
              "type": "uint256"
            },
            {
              "internalType": "uint256",
              "name": "amount",
              "type": "uint256"
            },
            {
              "internalType": "string",
              "name": "action",
              "type": "string"
            },
            {
              "internalType": "uint256",
              "name": "timestamp",
              "type": "uint256"
            },
            {
              "internalType": "uint256",
              "name": "expireTimestamp",
              "type": "uint256"
            },
            {
              "internalType": "uint256",
              "name": "deductedPoints",
              "type": "uint256"
            },
            {
              "internalType": "uint256[]",
              "name": "fromTokenIds",
              "type": "uint256[]"
            },
            {
              "internalType": "bool",
              "name": "expired",
              "type": "bool"
            }
          ],
          "internalType": "struct LoyaltyProgram.LoyaltyPointEntry[]",
          "name": "",
          "type": "tuple[]"
        }
      ],
      "stateMutability": "view",
      "type": "function",
      "constant": true
    }
  ],
  "bytecode": "0x60806040523480156200001157600080fd5b5060405162002b9d38038062002b9d833981810160405281019062000037919062000095565b806000806101000a81548173ffffffffffffffffffffffffffffffffffffffff021916908373ffffffffffffffffffffffffffffffffffffffff160217905550506200010f565b6000815190506200008f81620000f5565b92915050565b600060208284031215620000a857600080fd5b6000620000b8848285016200007e565b91505092915050565b6000620000ce82620000d5565b9050919050565b600073ffffffffffffffffffffffffffffffffffffffff82169050919050565b6200010081620000c1565b81146200010c57600080fd5b50565b612a7e806200011f6000396000f3fe608060405234801561001057600080fd5b50600436106100935760003560e01c80638560a329116100665780638560a32914610158578063859323451461018e5780638e839e9d146101aa578063e92e92e7146101c6578063fc0c546a146101e257610093565b80630fac91001461009857806334fb2fb5146100c85780635428abca146100f85780635f48d56714610128575b600080fd5b6100b260048036038101906100ad9190611c8e565b610200565b6040516100bf9190612564565b60405180910390f35b6100e260048036038101906100dd9190611c8e565b610218565b6040516100ef9190612427565b60405180910390f35b610112600480360381019061010d9190611c8e565b6104dc565b60405161011f9190612564565b60405180910390f35b610142600480360381019061013d9190611c8e565b610525565b60405161014f9190612564565b60405180910390f35b610172600480360381019061016d9190611cb7565b61053d565b604051610185979695949392919061257f565b60405180910390f35b6101a860048036038101906101a39190611d1c565b610621565b005b6101c460048036038101906101bf9190611d1c565b610a4b565b005b6101e060048036038101906101db9190611d1c565b6110ca565b005b6101ea61194f565b6040516101f79190612449565b60405180910390f35b60016020528060005260406000206000915090505481565b60606000600260008473ffffffffffffffffffffffffffffffffffffffff1673ffffffffffffffffffffffffffffffffffffffff16815260200190815260200160002054905060008167ffffffffffffffff8111156102a0577f4e487b7100000000000000000000000000000000000000000000000000000000600052604160045260246000fd5b6040519080825280602002602001820160405280156102d957816020015b6102c6611b18565b8152602001906001900390816102be5790505b50905060005b828110156104d157600360008673ffffffffffffffffffffffffffffffffffffffff1673ffffffffffffffffffffffffffffffffffffffff168152602001908152602001600020600082815260200190815260200160002060405180610100016040529081600082015481526020016001820154815260200160028201805461036790612919565b80601f016020809104026020016040519081016040528092919081815260200182805461039390612919565b80156103e05780601f106103b5576101008083540402835291602001916103e0565b820191906000526020600020905b8154815290600101906020018083116103c357829003601f168201915b505050505081526020016003820154815260200160048201548152602001600582015481526020016006820180548060200260200160405190810160405280929190818152602001828054801561045657602002820191906000526020600020905b815481526020019060010190808311610442575b505050505081526020016007820160009054906101000a900460ff1615151515815250508282815181106104b3577f4e487b7100000000000000000000000000000000000000000000000000000000600052603260045260246000fd5b602002602001018190525080806104c99061294b565b9150506102df565b508092505050919050565b6000600160008373ffffffffffffffffffffffffffffffffffffffff1673ffffffffffffffffffffffffffffffffffffffff168152602001908152602001600020549050919050565b60026020528060005260406000206000915090505481565b60036020528160005260406000206020528060005260406000206000915091505080600001549080600101549080600201805461057990612919565b80601f01602080910402602001604051908101604052809291908181526020018280546105a590612919565b80156105f25780601f106105c7576101008083540402835291602001916105f2565b820191906000526020600020905b8154815290600101906020018083116105d557829003601f168201915b5050505050908060030154908060040154908060050154908060070160009054906101000a900460ff16905087565b60008111610664576040517f08c379a000000000000000000000000000000000000000000000000000000000815260040161065b906124c4565b60405180910390fd5b60008054906101000a900473ffffffffffffffffffffffffffffffffffffffff1673ffffffffffffffffffffffffffffffffffffffff166323b872dd3330846040518463ffffffff1660e01b81526004016106c1939291906123c7565b602060405180830381600087803b1580156106db57600080fd5b505af11580156106ef573d6000803e3d6000fd5b505050506040513d601f19601f820116820180604052508101906107139190611cf3565b610752576040517f08c379a000000000000000000000000000000000000000000000000000000000815260040161074990612484565b60405180910390fd5b6000600260003373ffffffffffffffffffffffffffffffffffffffff1673ffffffffffffffffffffffffffffffffffffffff1681526020019081526020016000205490506000603c426107a591906127f0565b905060606107b38184611973565b90506040518061010001604052808481526020018581526020016040518060400160405280600481526020017f6561726e0000000000000000000000000000000000000000000000000000000081525081526020014281526020018381526020016000815260200182815260200160001515815250600360003373ffffffffffffffffffffffffffffffffffffffff1673ffffffffffffffffffffffffffffffffffffffff1681526020019081526020016000206000858152602001908152602001600020600082015181600001556020820151816001015560408201518160020190805190602001906108a8929190611b5f565b50606082015181600301556080820151816004015560a0820151816005015560c08201518160060190805190602001906108e3929190611be5565b5060e08201518160070160006101000a81548160ff02191690831515021790555090505061095984600160003373ffffffffffffffffffffffffffffffffffffffff1673ffffffffffffffffffffffffffffffffffffffff16815260200190815260200160002054611aec90919063ffffffff16565b600160003373ffffffffffffffffffffffffffffffffffffffff1673ffffffffffffffffffffffffffffffffffffffff16815260200190815260200160002081905550600260003373ffffffffffffffffffffffffffffffffffffffff1673ffffffffffffffffffffffffffffffffffffffff16815260200190815260200160002060008154809291906109ec9061294b565b91905055503373ffffffffffffffffffffffffffffffffffffffff167f75fc25da69e5f11424226264dd17f97749c7b4b466a62a066b3351de5708edf084864286604051610a3d94939291906126c8565b60405180910390a250505050565b6000600360003373ffffffffffffffffffffffffffffffffffffffff1673ffffffffffffffffffffffffffffffffffffffff16815260200190815260200160002060008381526020019081526020016000206001015411610ae1576040517f08c379a0000000000000000000000000000000000000000000000000000000008152600401610ad890612524565b60405180910390fd5b7ff943a5309b9b51c0b25ae4b14fabba688e84a1bddc50bad9cac431110d945616600360003373ffffffffffffffffffffffffffffffffffffffff1673ffffffffffffffffffffffffffffffffffffffff1681526020019081526020016000206000838152602001908152602001600020600201604051610b6291906123b0565b604051809103902014610baa576040517f08c379a0000000000000000000000000000000000000000000000000000000008152600401610ba1906124e4565b60405180910390fd5b600360003373ffffffffffffffffffffffffffffffffffffffff1673ffffffffffffffffffffffffffffffffffffffff168152602001908152602001600020600082815260200190815260200160002060070160009054906101000a900460ff1615610c15576110c7565b600360003373ffffffffffffffffffffffffffffffffffffffff1673ffffffffffffffffffffffffffffffffffffffff168152602001908152602001600020600082815260200190815260200160002060040154421015610c75576110c7565b6000610d30600360003373ffffffffffffffffffffffffffffffffffffffff1673ffffffffffffffffffffffffffffffffffffffff168152602001908152602001600020600084815260200190815260200160002060050154600360003373ffffffffffffffffffffffffffffffffffffffff1673ffffffffffffffffffffffffffffffffffffffff168152602001908152602001600020600085815260200190815260200160002060010154611b0290919063ffffffff16565b905060008111610d75576040517f08c379a0000000000000000000000000000000000000000000000000000000008152600401610d6c90612464565b60405180910390fd5b6001600360003373ffffffffffffffffffffffffffffffffffffffff1673ffffffffffffffffffffffffffffffffffffffff168152602001908152602001600020600084815260200190815260200160002060070160006101000a81548160ff021916908315150217905550610e3381600160003373ffffffffffffffffffffffffffffffffffffffff1673ffffffffffffffffffffffffffffffffffffffff16815260200190815260200160002054611b0290919063ffffffff16565b600160003373ffffffffffffffffffffffffffffffffffffffff1673ffffffffffffffffffffffffffffffffffffffff168152602001908152602001600020819055506060610e828184611973565b90506000600260003373ffffffffffffffffffffffffffffffffffffffff1673ffffffffffffffffffffffffffffffffffffffff1681526020019081526020016000205490506040518061010001604052808281526020018481526020016040518060400160405280600681526020017f657870697265000000000000000000000000000000000000000000000000000081525081526020014281526020014281526020016000815260200183815260200160011515815250600360003373ffffffffffffffffffffffffffffffffffffffff1673ffffffffffffffffffffffffffffffffffffffff168152602001908152602001600020600083815260200190815260200160002060008201518160000155602082015181600101556040820151816002019080519060200190610fbb929190611b5f565b50606082015181600301556080820151816004015560a0820151816005015560c0820151816006019080519060200190610ff6929190611be5565b5060e08201518160070160006101000a81548160ff021916908315150217905550905050600260003373ffffffffffffffffffffffffffffffffffffffff1673ffffffffffffffffffffffffffffffffffffffff168152602001908152602001600020600081548092919061106a9061294b565b91905055503373ffffffffffffffffffffffffffffffffffffffff167fc85ed27dca6d686845c49d6c26c5f1f7139a9a61d48870d8d8c1ee7cddab2d90828542426040516110bb9493929190612670565b60405180910390a25050505b50565b6000811161110d576040517f08c379a000000000000000000000000000000000000000000000000000000000815260040161110490612504565b60405180910390fd5b80600160003373ffffffffffffffffffffffffffffffffffffffff1673ffffffffffffffffffffffffffffffffffffffff16815260200190815260200160002054101561118f576040517f08c379a000000000000000000000000000000000000000000000000000000000815260040161118690612544565b60405180910390fd5b6000600260003373ffffffffffffffffffffffffffffffffffffffff1673ffffffffffffffffffffffffffffffffffffffff16815260200190815260200160002054905060008290506000606060005b8481101561157e576000600360003373ffffffffffffffffffffffffffffffffffffffff1673ffffffffffffffffffffffffffffffffffffffff16815260200190815260200160002060008381526020019081526020016000206001015411801561129d575042600360003373ffffffffffffffffffffffffffffffffffffffff1673ffffffffffffffffffffffffffffffffffffffff16815260200190815260200160002060008381526020019081526020016000206004015410155b801561132f57507ff943a5309b9b51c0b25ae4b14fabba688e84a1bddc50bad9cac431110d945616600360003373ffffffffffffffffffffffffffffffffffffffff1673ffffffffffffffffffffffffffffffffffffffff168152602001908152602001600020600083815260200190815260200160002060020160405161132591906123b0565b6040518091039020145b1561156b5760006113ef600360003373ffffffffffffffffffffffffffffffffffffffff1673ffffffffffffffffffffffffffffffffffffffff168152602001908152602001600020600084815260200190815260200160002060050154600360003373ffffffffffffffffffffffffffffffffffffffff1673ffffffffffffffffffffffffffffffffffffffff168152602001908152602001600020600085815260200190815260200160002060010154611b0290919063ffffffff16565b905060008186116114005785611402565b815b9050600061146c82600360003373ffffffffffffffffffffffffffffffffffffffff1673ffffffffffffffffffffffffffffffffffffffff168152602001908152602001600020600087815260200190815260200160002060050154611aec90919063ffffffff16565b90506000600360003373ffffffffffffffffffffffffffffffffffffffff1673ffffffffffffffffffffffffffffffffffffffff168152602001908152602001600020600086815260200190815260200160002060000154905081600360003373ffffffffffffffffffffffffffffffffffffffff1673ffffffffffffffffffffffffffffffffffffffff1681526020019081526020016000206000878152602001908152602001600020600501819055506115318388611aec90919063ffffffff16565b965061153d8682611973565b95506115528389611b0290919063ffffffff16565b97506000881415611566575050505061157e565b505050505b80806115769061294b565b9150506111df565b50600082116115c2576040517f08c379a00000000000000000000000000000000000000000000000000000000081526004016115b9906124a4565b60405180910390fd5b61161482600160003373ffffffffffffffffffffffffffffffffffffffff1673ffffffffffffffffffffffffffffffffffffffff16815260200190815260200160002054611b0290919063ffffffff16565b600160003373ffffffffffffffffffffffffffffffffffffffff1673ffffffffffffffffffffffffffffffffffffffff1681526020019081526020016000208190555060008054906101000a900473ffffffffffffffffffffffffffffffffffffffff1673ffffffffffffffffffffffffffffffffffffffff1663a9059cbb33846040518363ffffffff1660e01b81526004016116b29291906123fe565b602060405180830381600087803b1580156116cc57600080fd5b505af11580156116e0573d6000803e3d6000fd5b505050506040513d601f19601f820116820180604052508101906117049190611cf3565b506000600260003373ffffffffffffffffffffffffffffffffffffffff1673ffffffffffffffffffffffffffffffffffffffff1681526020019081526020016000205490506040518061010001604052808281526020018481526020016040518060400160405280600681526020017f72656465656d0000000000000000000000000000000000000000000000000000815250815260200142815260200142815260200184815260200183815260200160001515815250600360003373ffffffffffffffffffffffffffffffffffffffff1673ffffffffffffffffffffffffffffffffffffffff16815260200190815260200160002060008381526020019081526020016000206000820151816000015560208201518160010155604082015181600201908051906020019061183b929190611b5f565b50606082015181600301556080820151816004015560a0820151816005015560c0820151816006019080519060200190611876929190611be5565b5060e08201518160070160006101000a81548160ff021916908315150217905550905050600260003373ffffffffffffffffffffffffffffffffffffffff1673ffffffffffffffffffffffffffffffffffffffff16815260200190815260200160002060008154809291906118ea9061294b565b91905055503373ffffffffffffffffffffffffffffffffffffffff167f51dc974308c627806f3e031b033f99d21c9af6d16681b5526f7c1dc42bd9b58f82854242888860405161193f969594939291906125f5565b60405180910390a2505050505050565b60008054906101000a900473ffffffffffffffffffffffffffffffffffffffff1681565b606060006001845161198591906127f0565b67ffffffffffffffff8111156119c4577f4e487b7100000000000000000000000000000000000000000000000000000000600052604160045260246000fd5b6040519080825280602002602001820160405280156119f25781602001602082028036833780820191505090505b50905060005b8451811015611a9a57848181518110611a3a577f4e487b7100000000000000000000000000000000000000000000000000000000600052603260045260246000fd5b6020026020010151828281518110611a7b577f4e487b7100000000000000000000000000000000000000000000000000000000600052603260045260246000fd5b6020026020010181815250508080611a929061294b565b9150506119f8565b508281855181518110611ad6577f4e487b7100000000000000000000000000000000000000000000000000000000600052603260045260246000fd5b6020026020010181815250508091505092915050565b60008183611afa91906127f0565b905092915050565b60008183611b109190612846565b905092915050565b604051806101000160405280600081526020016000815260200160608152602001600081526020016000815260200160008152602001606081526020016000151581525090565b828054611b6b90612919565b90600052602060002090601f016020900481019282611b8d5760008555611bd4565b82601f10611ba657805160ff1916838001178555611bd4565b82800160010185558215611bd4579182015b82811115611bd3578251825591602001919060010190611bb8565b5b509050611be19190611c32565b5090565b828054828255906000526020600020908101928215611c21579160200282015b82811115611c20578251825591602001919060010190611c05565b5b509050611c2e9190611c32565b5090565b5b80821115611c4b576000816000905550600101611c33565b5090565b600081359050611c5e81612a03565b92915050565b600081519050611c7381612a1a565b92915050565b600081359050611c8881612a31565b92915050565b600060208284031215611ca057600080fd5b6000611cae84828501611c4f565b91505092915050565b60008060408385031215611cca57600080fd5b6000611cd885828601611c4f565b9250506020611ce985828601611c79565b9150509250929050565b600060208284031215611d0557600080fd5b6000611d1384828501611c64565b91505092915050565b600060208284031215611d2e57600080fd5b6000611d3c84828501611c79565b91505092915050565b6000611d5183836122db565b905092915050565b6000611d658383612392565b60208301905092915050565b611d7a8161287a565b82525050565b6000611d8b82612755565b611d958185612790565b935083602082028501611da785612720565b8060005b85811015611de35784840389528151611dc48582611d45565b9450611dcf83612776565b925060208a01995050600181019050611dab565b50829750879550505050505092915050565b6000611e0082612760565b611e0a81856127a1565b9350611e1583612730565b8060005b83811015611e46578151611e2d8882611d59565b9750611e3883612783565b925050600181019050611e19565b5085935050505092915050565b6000611e5e82612760565b611e6881856127b2565b9350611e7383612730565b8060005b83811015611ea4578151611e8b8882611d59565b9750611e9683612783565b925050600181019050611e77565b5085935050505092915050565b611eba8161288c565b82525050565b611ec98161288c565b82525050565b60008154611edc81612919565b611ee681866127c3565b94506001821660008114611f015760018114611f1257611f45565b60ff19831686528186019350611f45565b611f1b85612740565b60005b83811015611f3d57815481890152600182019150602081019050611f1e565b838801955050505b50505092915050565b611f57816128c2565b82525050565b6000611f688261276b565b611f7281856127ce565b9350611f828185602086016128e6565b611f8b816129f2565b840191505092915050565b6000611fa18261276b565b611fab81856127df565b9350611fbb8185602086016128e6565b611fc4816129f2565b840191505092915050565b6000611fdc6013836127df565b91507f4e6f20706f696e747320746f20657870697265000000000000000000000000006000830152602082019050919050565b600061201c600f836127df565b91507f5472616e73666572206661696c656400000000000000000000000000000000006000830152602082019050919050565b600061205c6006836127df565b91507f72656465656d00000000000000000000000000000000000000000000000000006000830152602082019050919050565b600061209c6022836127df565b91507f4e6f20706f696e747320617661696c61626c6520666f7220726564656d70746960008301527f6f6e0000000000000000000000000000000000000000000000000000000000006020830152604082019050919050565b6000612102601d836127df565b91507f416d6f756e74206d7573742062652067726561746572207468616e20300000006000830152602082019050919050565b60006121426021836127df565b91507f4f6e6c7920276561726e2720706f696e74732063616e2062652065787069726560008301527f64000000000000000000000000000000000000000000000000000000000000006020830152604082019050919050565b60006121a8601d836127df565b91507f506f696e7473206d7573742062652067726561746572207468616e20300000006000830152602082019050919050565b60006121e86006836127df565b91507f65787069726500000000000000000000000000000000000000000000000000006000830152602082019050919050565b60006122286010836127df565b91507f496e76616c696420746f6b656e204944000000000000000000000000000000006000830152602082019050919050565b60006122686013836127df565b91507f496e73756666696369656e7420706f696e7473000000000000000000000000006000830152602082019050919050565b60006122a86004836127df565b91507f6561726e000000000000000000000000000000000000000000000000000000006000830152602082019050919050565b6000610100830160008301516122f46000860182612392565b5060208301516123076020860182612392565b506040830151848203604086015261231f8282611f5d565b91505060608301516123346060860182612392565b5060808301516123476080860182612392565b5060a083015161235a60a0860182612392565b5060c083015184820360c08601526123728282611df5565b91505060e083015161238760e0860182611eb1565b508091505092915050565b61239b816128b8565b82525050565b6123aa816128b8565b82525050565b60006123bc8284611ecf565b915081905092915050565b60006060820190506123dc6000830186611d71565b6123e96020830185611d71565b6123f660408301846123a1565b949350505050565b60006040820190506124136000830185611d71565b61242060208301846123a1565b9392505050565b600060208201905081810360008301526124418184611d80565b905092915050565b600060208201905061245e6000830184611f4e565b92915050565b6000602082019050818103600083015261247d81611fcf565b9050919050565b6000602082019050818103600083015261249d8161200f565b9050919050565b600060208201905081810360008301526124bd8161208f565b9050919050565b600060208201905081810360008301526124dd816120f5565b9050919050565b600060208201905081810360008301526124fd81612135565b9050919050565b6000602082019050818103600083015261251d8161219b565b9050919050565b6000602082019050818103600083015261253d8161221b565b9050919050565b6000602082019050818103600083015261255d8161225b565b9050919050565b600060208201905061257960008301846123a1565b92915050565b600060e082019050612594600083018a6123a1565b6125a160208301896123a1565b81810360408301526125b38188611f96565b90506125c260608301876123a1565b6125cf60808301866123a1565b6125dc60a08301856123a1565b6125e960c0830184611ec0565b98975050505050505050565b600060e08201905061260a60008301896123a1565b61261760208301886123a1565b81810360408301526126288161204f565b905061263760608301876123a1565b61264460808301866123a1565b61265160a08301856123a1565b81810360c08301526126638184611e53565b9050979650505050505050565b600060a08201905061268560008301876123a1565b61269260208301866123a1565b81810360408301526126a3816121db565b90506126b260608301856123a1565b6126bf60808301846123a1565b95945050505050565b600060a0820190506126dd60008301876123a1565b6126ea60208301866123a1565b81810360408301526126fb8161229b565b905061270a60608301856123a1565b61271760808301846123a1565b95945050505050565b6000819050602082019050919050565b6000819050602082019050919050565b60008190508160005260206000209050919050565b600081519050919050565b600081519050919050565b600081519050919050565b6000602082019050919050565b6000602082019050919050565b600082825260208201905092915050565b600082825260208201905092915050565b600082825260208201905092915050565b600081905092915050565b600082825260208201905092915050565b600082825260208201905092915050565b60006127fb826128b8565b9150612806836128b8565b9250827fffffffffffffffffffffffffffffffffffffffffffffffffffffffffffffffff0382111561283b5761283a612994565b5b828201905092915050565b6000612851826128b8565b915061285c836128b8565b92508282101561286f5761286e612994565b5b828203905092915050565b600061288582612898565b9050919050565b60008115159050919050565b600073ffffffffffffffffffffffffffffffffffffffff82169050919050565b6000819050919050565b60006128cd826128d4565b9050919050565b60006128df82612898565b9050919050565b60005b838110156129045780820151818401526020810190506128e9565b83811115612913576000848401525b50505050565b6000600282049050600182168061293157607f821691505b60208210811415612945576129446129c3565b5b50919050565b6000612956826128b8565b91507fffffffffffffffffffffffffffffffffffffffffffffffffffffffffffffffff82141561298957612988612994565b5b600182019050919050565b7f4e487b7100000000000000000000000000000000000000000000000000000000600052601160045260246000fd5b7f4e487b7100000000000000000000000000000000000000000000000000000000600052602260045260246000fd5b6000601f19601f8301169050919050565b612a0c8161287a565b8114612a1757600080fd5b50565b612a238161288c565b8114612a2e57600080fd5b50565b612a3a816128b8565b8114612a4557600080fd5b5056fea2646970667358221220a06e119091d0aadeab8d0fb14eca2bcc8fc30b99d8ed63a4ae779cb9e709da7264736f6c63430008000033",
  "immutableReferences": {},
  "source": "// SPDX-License-Identifier: MIT\npragma solidity ^0.8.0;\n\nimport \"./FungibleToken.sol\";\nimport \"@openzeppelin/contracts/utils/math/SafeMath.sol\";\n\ncontract LoyaltyProgram {\n    using SafeMath for uint256;\n\n    FungibleToken public token;\n    struct LoyaltyPointEntry {\n        uint256 tokenId; // Token ID to uniquely identify entries\n        uint256 amount;\n        string action;\n        uint256 timestamp;\n        uint256 expireTimestamp;\n        uint256 deductedPoints;\n        uint256[] fromTokenIds; // Array of token IDs used for redemption\n        bool expired; // Flag indicating if the entry is expired\n    }\n\n    mapping(address => uint256) public totalPoints;\n    mapping(address => uint256) public tokenCounter;\n    mapping(address => mapping(uint256 => LoyaltyPointEntry))\n        public loyaltyPoints;\n\n    constructor(address _token) {\n        token = FungibleToken(_token);\n    }\n\n    event PointsEarned(\n        address indexed user,\n        uint256 tokenId,\n        uint256 amount,\n        string action,\n        uint256 timestamp,\n        uint256 expireTimestamp\n    );\n    event PointsExpired(\n        address indexed user,\n        uint256 tokenId,\n        uint256 amount,\n        string action,\n        uint256 timestamp,\n        uint256 expireTimestamp\n    );\n    event PointsRedeemed(\n        address indexed user,\n        uint256 tokenId,\n        uint256 amount,\n        string action,\n        uint256 timestamp,\n        uint256 expireTimestamp,\n        uint256 deductedPoints,\n        uint256[] fromTokenIds\n    );\n\n    function earnPoints(uint256 amount) external {\n        require(amount > 0, \"Amount must be greater than 0\");\n        require(\n            token.transferFrom(msg.sender, address(this), amount),\n            \"Transfer failed\"\n        );\n\n        uint256 tokenId = tokenCounter[msg.sender];\n        uint256 expireTimestamp = block.timestamp + 1 minutes; // Set expiration time to 1 minute from now\n\n        uint256[] memory fromTokenIds;\n        fromTokenIds = _appendToArray(fromTokenIds, tokenId);\n        loyaltyPoints[msg.sender][tokenId] = LoyaltyPointEntry(\n            tokenId,\n            amount,\n            \"earn\",\n            block.timestamp,\n            expireTimestamp,\n            0,\n            fromTokenIds,\n            false\n        );\n        totalPoints[msg.sender] = totalPoints[msg.sender].add(amount);\n        tokenCounter[msg.sender]++;\n\n        emit PointsEarned(\n            msg.sender,\n            tokenId,\n            amount,\n            \"earn\",\n            block.timestamp,\n            expireTimestamp\n        );\n    }\n\n    function redeemPoints(uint256 amount) external {\n        require(amount > 0, \"Points must be greater than 0\");\n        require(totalPoints[msg.sender] >= amount, \"Insufficient points\");\n\n        uint256 tokenId = tokenCounter[msg.sender];\n        uint256 remainingRedeemAmount = amount;\n        uint256 deductedPoints = 0;\n        uint256[] memory fromTokenIds;\n\n        // Find the available \"earn\" entries with enough points and not expired\n        for (uint256 i = 0; i < tokenId; i++) {\n            if (\n                loyaltyPoints[msg.sender][i].amount > 0 &&\n                loyaltyPoints[msg.sender][i].expireTimestamp >=\n                block.timestamp &&\n                keccak256(bytes(loyaltyPoints[msg.sender][i].action)) ==\n                keccak256(\"earn\")\n            ) {\n                uint256 availablePoints = loyaltyPoints[msg.sender][i]\n                    .amount\n                    .sub(loyaltyPoints[msg.sender][i].deductedPoints);\n                uint256 redeemAmount = remainingRedeemAmount > availablePoints\n                    ? availablePoints\n                    : remainingRedeemAmount;\n                uint256 newDeductedPoints = loyaltyPoints[msg.sender][i]\n                    .deductedPoints\n                    .add(redeemAmount);\n                uint256 fromTokenId = loyaltyPoints[msg.sender][i].tokenId;\n\n                // Update the \"earn\" entry with deducted points\n                loyaltyPoints[msg.sender][i].deductedPoints = newDeductedPoints;\n\n                deductedPoints = deductedPoints.add(redeemAmount);\n                fromTokenIds = _appendToArray(fromTokenIds, fromTokenId);\n\n                remainingRedeemAmount = remainingRedeemAmount.sub(redeemAmount);\n\n                if (remainingRedeemAmount == 0) {\n                    break; // Exit the loop once fully redeemed\n                }\n            }\n        }\n\n        // Ensure that points are deducted before proceeding\n        require(deductedPoints > 0, \"No points available for redemption\");\n\n        // Update the totalPoints and transfer tokens\n        totalPoints[msg.sender] = totalPoints[msg.sender].sub(deductedPoints);\n        token.transfer(msg.sender, deductedPoints);\n\n        // Create a new entry for the redemption\n        uint256 newTokenId = tokenCounter[msg.sender];\n        loyaltyPoints[msg.sender][newTokenId] = LoyaltyPointEntry(\n            newTokenId,\n            deductedPoints,\n            \"redeem\",\n            block.timestamp,\n            block.timestamp,\n            deductedPoints,\n            fromTokenIds,\n            false\n        );\n        tokenCounter[msg.sender]++;\n\n        emit PointsRedeemed(\n            msg.sender,\n            newTokenId,\n            deductedPoints,\n            \"redeem\",\n            block.timestamp,\n            block.timestamp,\n            deductedPoints,\n            fromTokenIds\n        );\n    }\n\n    function expirePoints(uint256 tokenId) external {\n        require(\n            loyaltyPoints[msg.sender][tokenId].amount > 0,\n            \"Invalid token ID\"\n        );\n\n        // Only allow expiring 'earn' points\n        require(\n            keccak256(bytes(loyaltyPoints[msg.sender][tokenId].action)) ==\n                keccak256(\"earn\"),\n            \"Only 'earn' points can be expired\"\n        );\n\n        // Skip if the points entry is already expired\n        if (loyaltyPoints[msg.sender][tokenId].expired) {\n            return;\n        }\n\n        // Skip if the entry is not yet expired based on the timestamp\n        if (\n            block.timestamp < loyaltyPoints[msg.sender][tokenId].expireTimestamp\n        ) {\n            return;\n        }\n\n        uint256 expiredAmount = loyaltyPoints[msg.sender][tokenId].amount.sub(\n            loyaltyPoints[msg.sender][tokenId].deductedPoints\n        );\n        require(expiredAmount > 0, \"No points to expire\");\n\n        // Set the entry to expired\n        loyaltyPoints[msg.sender][tokenId].expired = true;\n\n        // Deduct the remaining points from totalPoints\n        totalPoints[msg.sender] = totalPoints[msg.sender].sub(expiredAmount);\n        uint256[] memory fromTokenIds;\n        fromTokenIds = _appendToArray(fromTokenIds, tokenId);\n        // Create a new entry for the expired points\n        uint256 newTokenId = tokenCounter[msg.sender];\n        loyaltyPoints[msg.sender][newTokenId] = LoyaltyPointEntry(\n            newTokenId,\n            expiredAmount,\n            \"expire\",\n            block.timestamp,\n            block.timestamp,\n            0,\n            fromTokenIds,\n            true\n        );\n        tokenCounter[msg.sender]++;\n\n        emit PointsExpired(\n            msg.sender,\n            newTokenId,\n            expiredAmount,\n            \"expire\",\n            block.timestamp,\n            block.timestamp\n        );\n    }\n\n    function getTotalEarnedPoints(\n        address user\n    ) external view returns (uint256) {\n        return totalPoints[user];\n    }\n\n    function getEarnedPointsWithTimestamps(\n        address user\n    ) external view returns (LoyaltyPointEntry[] memory) {\n        uint256 userTokenCounter = tokenCounter[user];\n        LoyaltyPointEntry[] memory earnedPoints = new LoyaltyPointEntry[](\n            userTokenCounter\n        );\n\n        for (uint256 i = 0; i < userTokenCounter; i++) {\n            earnedPoints[i] = loyaltyPoints[user][i];\n        }\n\n        return earnedPoints;\n    }\n\n    function _appendToArray(\n        uint256[] memory array,\n        uint256 element\n    ) private pure returns (uint256[] memory) {\n        uint256[] memory newArray = new uint256[](array.length + 1);\n        for (uint256 i = 0; i < array.length; i++) {\n            newArray[i] = array[i];\n        }\n        newArray[array.length] = element;\n        return newArray;\n    }\n}\n",
  "sourcePath": "/Volumes/WorkShop/BLOCKCHAIN/(modified)loyalty-points-using-token copy/contracts/LoyaltyProgram.sol",
  "compiler": {
    "name": "solc",
    "version": "0.8.0+commit.c7dfd78e.Emscripten.clang"
  },
  "schemaVersion": "3.4.15",
  "updatedAt": "2023-08-18T20:05:57.968Z",
  "networkType": "ethereum",
  "devdoc": {
    "kind": "dev",
    "methods": {},
    "version": 1
  },
  "userdoc": {
    "kind": "user",
    "methods": {},
    "version": 1
  }
}